:020000041000EA
:1000000000B5324B212058609868022188439860DF
:10001000D860186158612E4B002199600221596106
:100020000121F02299502B49196001219960352056
:1000300000F044F80222904214D00621196600F024
:1000400034F8196E01211966002018661A6600F04E
:100050002CF8196E196E196E052000F02FF8012189
:100060000842F9D1002199601B49196000215960AB
:100070001A491B48016001219960EB211966A021F2
:10008000196600F012F800219960164914480160C1
:100090000121996001BC002800D000471248134993
:1000A000086003C880F30888084703B5996A0420EC
:1000B0000142FBD001200142F8D103BD02B5186610
:1000C0001866FFF7F2FF186E186E02BD00000240BE
:1000D000000000180000070000035F00212200005C
:1000E000F4000018222000A00001001008ED00E03C
:1000F00000000000000000000000000074B24E7A12
:1001000000200420F7010010C3010010C5010010F9
:10011000C1010010C1010010C1010010C101001097
:10012000C1010010C1010010C1010010C701001081
:10013000C1010010C1010010C9010010CB01001065
:10014000CD010010CD010010CD010010CD01001037
:10015000CD010010CD010010CD010010CD01001027
:10016000CD010010CD010010CD010010CD01001017
:10017000CD010010CD010010CD010010CD01001007
:10018000CD010010CD010010CD010010CD010010F7
:10019000CD010010CD010010CD010010CD010010E7
:1001A000CD010010CD010010CD010010CD010010D7
:1001B000CD010010CD010010CD010010CD010010C7
:1001C00000BE00BE00BE00BE00BE00BEEFF3058054
:1001D000103800BEF2EB88711CA2001044A200107F
:1001E0003402001090A31AE700201F49086006C8D7
:1001F00081F3088810471D48006800282FD10DA4FE
:100200000ECC002902D000F012F8F9E71849194A7B
:10021000002000E001C19142FCD1174988471749ED
:1002200088471749884700BEFDE701C901C29A42C5
:10023000FBD3704744A20010C0000020F41500203A
:1002400078B70010000004200000042078B70010E8
:10025000001004200010042000000000704709482E
:1002600004F050FF0047000008ED00E0000000D05F
:10027000181600206C2600202D38001009030010ED
:10028000553900105756000006005250ABB360536A
:10029000949D001006005250861C0302A49D00107D
:1002A000060052505422A29DB09D001005005250ED
:1002B000DE65F46878B70010F8B5C046064807490F
:1002C000091A8B10C90FC91810B5491003D0044B77
:1002D000002B00D0984710BDF4150020F415002025
:1002E00000000000054B10B5002B03D00449054861
:1002F00000E000BFFFF7E2FF10BDC04600000000B5
:1003000004250020109A0010F0B5DE4657464E46F0
:100310004546E0B5012091B001F0F0F801F060F938
:10032000714802F081FB2A230022704CD025200066
:10033000E25400F07FFF200000F0B6FC6C4B6D4EE5
:1003400099466D4B6D4F06936D4B2D0607936D4B84
:1003500005936D4B08936D4B98466D4B0B936D4B0E
:1003600009936D4B0C936D4B0E936D4B0F936D4B2F
:100370000D936D4B0A936D4B9A464B461B78002BA1
:100380003CD143461B78002B74D13B78002BF4D032
:100390000A9805F08BFE069805F088FE01F01AF920
:1003A00000239B465A46079B1A7008F037FD5D21D3
:1003B00004F002FF53462131642219702000514697
:1003C00000F004FC5146089805F062FF200000F0A0
:1003D00039F92B233000E15C05F05AFF2C23300063
:1003E000E15C05F055FF2D233000E15C05F050FF86
:1003F0005B463B704B461B78002BC2D0200000F0C0
:100400009DFE8022D2006B681342FCD0069805F056
:100410004DFE01F0DFF800239B465A46079B1A70F9
:1004200008F0FCFC5D2104F0C7FE059B213164222D
:1004300019702000190000F0C9FB0599089805F013
:1004400027FF200000F0FEF82B233000E15C05F0D0
:100450001FFF2C233000E15C05F01AFF2D23300034
:10046000E15C05F015FF4B465A461A7043461B786F
:10047000002B8AD00B9805F019FE099B9B461800AB
:1004800005F014FEA36BE26B616B0C9805F000FFA6
:100490005B461B78612B1ED00E9B1B689B4602F0AF
:1004A000C1FB0023224A12184B41802109068B42CE
:1004B00002D301221F4B52420121029100210191DE
:1004C0000F995846009102F085F80D9B18600023A3
:1004D0004246137059E7099B5B78632BDCD1099B7B
:1004E0009B786B2BD8D1F2E788130000642500209D
:1004F00066260020289A0010109A0010642600201A
:10050000672600200C0F00201C9A00106326002094
:10051000349A0010A8250020409A0010381F0020AF
:100520006D160010341F0020709A0010A80E0020D5
:1005300040420F00FFFFFF7F70B50A2800D070BD5A
:100540002E25224805F0B2FD214C200000F098FC39
:10055000635D002B29D12F25635D002B14D130253D
:10056000635D002B03D1200000F052FCE7E719483F
:1005700005F09CFD002301226355174B1A703123AF
:10058000E25C164B1A70EEE7154805F08FFD642209
:100590001449200000F00EFD200000F073FD002340
:1005A00001226355104B1A70D9E7104805F07EFD03
:1005B000200000F071FB200000F076FB00230122F8
:1005C00063550B4B1A7001F00BF8C4E77C9A0010CE
:1005D00064250020989A0010592600205A260020F1
:1005E000909A0010A825002063260020889A001009
:1005F00067260020FE231148DB0110B540228362EC
:100600000023835283850E4B00210360192343602E
:10061000013383600133C360033B0361103B4361DB
:10062000023383610133C361023B036204334362DB
:100630003C3A2E3005F066FC10BDC0466425002013
:1006400000000440F8B5012632004368D0279A40E4
:1006500004003F06BA610F490122006809F098F9C9
:1006600022000D4D0123290020682B3209F098F952
:1006700022002900012320682C3209F091F9220080
:100680002900012320682D3209F08AF963689E4011
:100690007E61F8BDA29E0010A79E0010F0B5C64670
:1006A0000127040000B5402207211C4805F0F0FD99
:1006B0003A0063681A4D9A401300D0221206904601
:1006C000936118492A000123206809F069F92A007A
:1006D00001231549206809F063F92A000123134911
:1006E000206809F05DF9124E2A00310001232068CC
:1006F00009F056F92A0031000123206809F050F969
:100700002A0031000123206809F04AF963689F40FC
:1007100043465F6180BCB846F0BDC046A09A001059
:1007200060260020A89E0010A69E0010A59E001026
:10073000A79E001070B504000126254805F0B6FC00
:10074000606801F075F932006368D0259A402D0683
:100750006A62206A6A6101F06BF93200236A60699B
:100760009A406A626A6101F063F932006369E06984
:100770009A406A62AA6101F05BF9E36920689E40D1
:100780001449AE6207F0DEFFC02102202368890110
:100790001D1D29435A680860196802400530414010
:1007A000C8300840802149010B43186080239B0119
:1007B0002B431A60A068012101F096F8E06801213E
:1007C00001F092F80121206901F08EF870BDC04659
:1007D000AC9A001020A10700F0B54F46D646464619
:1007E000C0B582B001AB9A46042352461370013360
:1007F0006B44994607234A461370013B6B44984665
:100800000023424613706B46DF1D01233B702933E2
:10081000C35C0400002B28D101252A006368D02680
:100820009A403606B26113490122206809F0B0F8F7
:1008300051460122206809F0ABF8494601222068A0
:1008400009F0A6F841460122206809F0A1F801222A
:100850003900206809F09CF863689D40756102B01A
:10086000E0BCBA46B146A846F0BD034805F01EFC00
:10087000D2E7C0469F9E0010D89A001070B501259F
:100880000400174B82B017491748019305F000FD8B
:100890002A006368D0269A403606B26113490122C5
:1008A000206809F075F801A90122206809F070F8A4
:1008B0006B460122591D206809F06AF86B46012237
:1008C000991D206809F064F86B460122D91D206843
:1008D00009F05EF863689D40756102B070BDC04666
:1008E00039300000C0CA8936EC9A00109E9E001074
:1008F000F0B5D6464F464646C0B582B001AB9A46E3
:100900000B2352461370063B6B44994603234A4619
:10091000137003336B449846042342460125137039
:100920006B462A00DD71DF1D4368D0269A40040023
:100930003606B26110490122006809F029F85146D3
:100940000122206809F024F849460122206809F0B4
:100950001FF841460122206809F01AF801223900E7
:10096000206809F015F863689D40756102B0E0BC2D
:10097000BA46B146A846F0BD9A9E0010F0B5DE46D4
:1009800057464E4645460223E0B583B06B449B462E
:1009900000235A46137003226A4492460F2251469E
:1009A0000A7001AA9146137005226A449046642297
:1009B000414601250A706A4604001D48971D95713D
:1009C000D37105F073FB2A006368D0269A4036067F
:1009D000B26118490122206808F0DAFF5946012265
:1009E000206808F0D5FF51460122206808F0D0FFAA
:1009F00049460122206808F0CBFF414601222068C9
:100A000008F0C6FF39000122206808F0C1FF6B46DC
:100A10000122D91D206808F0BBFF63689D40756105
:100A200003B0F0BCBB46B246A946A046F0BDC046E6
:100A3000089B0010969E0010F0B5DE4657464E46C5
:100A400045460223E0B583B06B449B4607235A46D4
:100A5000137003226A449246402251460A7001AA4A
:100A6000137090466A463A3353713B3B6B44994648
:100A700034234A4613706A461033D3711A3BC35C61
:100A80000400002B46D101252A006368D0269A4035
:100A9000224F36063900B2612068012208F078FF43
:100AA00059460122206808F073FF51460122206850
:100AB00008F06EFF49460122206808F069FF2A000D
:100AC00063680A209A40726101F0AEFF2A006368F1
:100AD00039009A402068B261012208F059FF41466E
:100AE0000122206808F054FF6B460122591D20683E
:100AF00008F04EFF6B460122D91D206808F048FF20
:100B000063689D40756103B0F0BCBB46B246A94620
:100B1000A046F0BD024805F0C9FAB4E7999E00105E
:100B2000449B0010F0B54F46D6464646C0B582B04D
:100B300001AB9A46072352461370023B6B44994619
:100B400001234A46137005336B44984602234246FC
:100B500013706B46DF1D80233B70563BC35C040063
:100B6000002B2BD101252A006368D0269A40360637
:100B7000B26114490122206808F00AFF514601229F
:100B8000206808F005FF49460122206808F000FFB0
:100B900041460122206808F0FBFE0122390020684E
:100BA00008F0F6FE63680A209D40756101F03CFF85
:100BB00002B0E0BCBA46B146A846F0BD024805F016
:100BC00075FACFE7949E00106C9B0010F0B50125DC
:100BD00016002A00C6464369D0279A4000B528234C
:100BE00082B03F06BA616A46C35C04008846D3718E
:100BF000FF2E16D82A00436824499A400068BA613B
:100C0000012208F0C5FE6B460122D91D206808F0BC
:100C1000BFFE32004146206808F0BAFE63689D407E
:100C20007D6105236B4498460023424613706A4653
:100C3000D37193712A33E35C971D002B22D10125D8
:100C40002A006368D0269A403606B2611049012214
:100C5000206808F09DFE41460122206808F098FEB9
:100C600039000122206808F093FE6B460122D91D4D
:100C7000206808F08DFE63689D40756102B080BCFD
:100C8000B846F0BD034805F011FAD8E79B9E001066
:100C9000989E00105C9B0010012342699340D02273
:100CA000120653617047C046F0B54746CE4605234D
:100CB00080B583B06B449946FF234A4613700622E1
:100CC0006A44137090466A46D371D53BC35CD71D06
:100CD0000400002B22D101252A006368D0269A4007
:100CE0003606B2610F490122206808F051FE4946DC
:100CF0000122206808F04CFE41460122206808F0DD
:100D000047FE01223900206808F042FE63689D40DA
:100D1000756103B0C0BCB946B046F0BD024805F0ED
:100D2000C5F9D8E7929E0010C09B0010F0B5DE46D2
:100D300057464E464546E0B583B0FF236A461370DA
:100D400001226A441370FD3B6B449A46934600238C
:100D50005246137003226A449146C32249460A70E0
:100D600001AA0400137090466A46012680695371F7
:100D70009371D371571D00F05BFE01220821A06919
:100D800000F0CAFD204805F091F932006368D025D3
:100D90009A402D06AA611D490122206808F0F8FD3D
:100DA00069460122206808F0F3FD594601222068B7
:100DB00008F0EEFD51460122206808F0E9FD4946A1
:100DC0000122206808F0E4FD41460122206808F075
:100DD000DFFD39000122206808F0DAFD6B460122B0
:100DE000991D206808F0D4FD6B460122D91D2068AA
:100DF00008F0CEFD63689E406E6103B0F0BCBB4658
:100E0000B246A946A046F0BDEC9B0010919E001092
:100E1000F0B5C646062300B582B06B449846FF2362
:100E2000424613706A46D371D53BC35CD71D04009C
:100E3000002B1CD101252A006368D0269A40360673
:100E4000B2610D490122206808F0A2FD414601224D
:100E5000206808F09DFD01223900206808F098FD07
:100E600063689D40756102B080BCB846F0BD034820
:100E700005F01CF9DEE7C046909E0010009C0010B3
:100E8000F0B5C64600B582B06A4600230127D61DDC
:100E90009371D3713A00436804009A401300D02242
:100EA0001206936190461C490122006808F070FD0B
:100EB0001A4D01222900206808F06AFD6A460123C4
:100EC00029000632206808F06BFD0123320029005A
:100ED000206808F065FD3A00636811489A401300E5
:100EE000424653616B463278997905F0D1F93378EF
:100EF0001F4201D02E22A7549A0702D52F2201218A
:100F0000A1545BB2002B02DA30230122E25402B07A
:100F100080BCB846F0BDC0468E9E0010A79E001053
:100F2000109C0010F8B52A23C35C0400002B27D1C5
:100F3000012632006368D0279A403F061849BA61FB
:100F40002068012208F024FD164D012229002068A6
:100F500008F01EFD2200012329004032206808F01D
:100F60001FFD2200012329002068413208F018FDEE
:100F700063689E402A237E61E35C002B04D1F8BDA8
:100F8000094805F093F8D3E740230848E15C05F0F1
:100F90007FF941230648E15C05F07AF9EFE7C046A6
:100FA0008D9E0010A79E00102C9C0010489C0010E5
:100FB0005C9C0010F8B5CE46474680B5160005008B
:100FC0000C00FFF7AFFFFF2E4CD84023EB5CB34281
:100FD00048D8264805F06AF80123984642466B68CF
:100FE000234F9A401300D0221206936191460123A9
:100FF0003A002049286808F0D3FC29003A00012370
:101000004131286808F0CCFC1B493A000F0001234D
:10101000286808F0C5FC330022003900286808F071
:10102000BFFC42466B689A4013004A4653612A232C
:10103000EB5C002B04D10020C0BCB946B046F8BD23
:101040000E4805F025F9002E08D00D4DA61921787F
:101050002800013405F01CF9A642F8D10A2004F05A
:10106000D9FFE8E701204042E6E7C046709C001047
:10107000602600208F9E0010A79E0010889C001004
:10108000989C0010F0B5D6464F464646C0B582B093
:101090006B46D91C142301270B7000233A0001AEC4
:1010A0003370436804009A401300D022120692461F
:1010B00093610068012208F06BFC1F4D320029008B
:1010C0000123206808F06CFC05236B449846290036
:1010D00042460123206808F063FC06236B449946CE
:1010E00029004A460123206808F05AFC6B46DE1DA1
:1010F000320029000123206808F052FC63689F40F9
:1011000053465F614B461A783823E25443461B78B6
:10111000A26B5B105B4263630323D1170B409B18E8
:101120009B10A36333785B105B42E36302B0E0BCC7
:10113000BA46B146A846F0BDA79E001070B582B071
:101140006B460125D91DC5232A000B704368D026A4
:101150009A4004003606B2610068012208F018FCCB
:1011600063689D40756102B070BDC046F0B5DE4653
:1011700057464E464546E0B583B06A46882313700D
:10118000873B6B449B4602235A4613706B449A4636
:101190001C2352461370193B6B4499460A234A4656
:1011A0000125137001AB1D7098466B465F1D092326
:1011B0006A463B70BB3393710023D3712A004368A6
:1011C000D0269A40040036066946B26100680122C2
:1011D00008F0DEFB59460122206808F0D9FB514691
:1011E0000122206808F0D4FB49460122206808F05B
:1011F000CFFB41460122206808F0CAFB39000122DA
:10120000206808F0C5FB6B460122991D206808F094
:10121000BFFB6B460122D91D206808F0B9FB63684B
:101220009D40756103B0F0BCBB46B246A946A046DE
:10123000F0BDC046F0B5C6460400012700B59C4885
:1012400082B004F033FF2000FFF774FA3A006368BD
:10125000D0259A402D06AA6196490122206808F0FF
:1012600097FB01229449206808F092FB934E0122DB
:101270003100206808F08CFB01223100206808F062
:1012800087FB01223100206808F082FB3A00636886
:1012900020009A406A61FFF745FC6B46DD1D2A235A
:1012A0002F70E35C002B00D0EAE001273A0063686E
:1012B00083499A401300D022120693619046206819
:1012C000012208F065FB01222900206808F060FB7C
:1012D0003A00636820009A40130042465361FFF7CA
:1012E00025FD2A232F70E35C002B00D0DBE00127D3
:1012F0003A00636873499A401300D0221206936142
:1013000090462068012208F043FB01222900206852
:1013100008F03EFB3A0063689A401300424653616E
:101320002A22A25C002A00D0B6E0D0273F06012284
:101330006549BB61206808F02BFB644A0123904695
:101340003100206808F02CFB424601233100206860
:1013500008F026FB01239846424663685C499A40A0
:1013600020687A61BA61012208F012FB2200012391
:1013700031002B32206808F013FB220001233100DA
:101380002C32206808F00CFB220001232D323100A2
:10139000206808F005FB424663689A407A611300B2
:1013A0002A22A25C002A00D06EE0D0260127360651
:1013B000B36101224749206808F0EAFA4649012250
:1013C000206808F0E5FA3A00636820009A407261EC
:1013D000FFF754FA2000FFF7FFF906236B44984605
:1013E0000023424613703A0004332B7063683B4974
:1013F0009A402068B261012208F0CAFA41460122EF
:10140000206808F0C5FA29000122206808F0C0FA17
:101410003A00636832499A4020687261B2610122E1
:1014200008F0B6FA210001222068283108F0B0FA4D
:10143000210001222931206808F0AAFA63682000FF
:101440009F407761FFF754FA2000FFF797FA2000DA
:10145000FFF7F2FA0F2301222B702249206808F0CF
:1014600097FA01222900206808F092FA2000FFF77D
:101470007DFE2000FFF712F902B080BCB846F0BD37
:10148000194804F013FE10E7184804F00FFE424616
:1014900063689A40130088E7154804F007FE636804
:1014A0009F403B0041E7134804F000FE1FE7C046A1
:1014B0009C9C0010A39E0010A49E0010A79E0010EC
:1014C000979E0010939E0010959E001060260020AD
:1014D000A29E0010A19E0010A09E00109D9E0010D4
:1014E0009C9E00108C9E0010289B0010BC9A00103F
:1014F000A89B0010889B00100120704730B585B074
:10150000040004F0D1FE002000F092FAD023012262
:101510001B065A6222499A61224807F0E5FC224DD7
:101520000321142000F0E0F90321152000F0DCF97C
:101530001E49280007F006F902221D496B680A605F
:101540002968134005325140C8320A4019491A48E7
:101550000A601A4A1121136005F036FA002C06D1F0
:1015600000F04CF800F08AF8002005B030BD3022C1
:101570000021134804F0C6FC00F0EEFF114B124AA4
:10158000029300230193114B009301235B4201F06E
:10159000E1F80028E4D10E4804F088FDE0E7C046F9
:1015A000A0860100681000200000044020A1070070
:1015B0000430044000100440E424002004200440CF
:1015C000242500204817002000796CFCF914001035
:1015D000B09C0010D02301221B065A617047C04600
:1015E000D02301221B069A617047C0460122024B9C
:1015F00001201A707047C0466626002000B50D20F5
:1016000085B000F015FAD02380221B0692015A62A1
:1016100008215A610A2001220E4B00F0A7F904208C
:1016200000F09EFF0C4B186000F096FF0B4B0C4A2D
:101630000293002301930B4B009301235B4201F0C3
:1016400089F8002801D005B000BD074804F02EFD40
:10165000F9E7C04639050010381F0020681900203E
:10166000803C36FEED150010B09C00100122024BAC
:10167000002000211A7070476426002010B5122047
:1016800000F0D6F9D02480232406DB02A3621120C7
:1016900000F0CEF980239B02A36210BDD0231B066D
:1016A0001B688D4A9900F0B54E46894651585A42FA
:1016B00053412F2257464546DE465B4293439846A8
:1016C000864BE0B59C4683B000270191E044002999
:1016D00035D0834B0F269B464246FB0808339B00C0
:1016E0009C5801233D009A460837002C1ED031003B
:1016F0002140264214D05B464A469A585346AB4096
:101700001A420DD1072208002A40920090400200A0
:10171000EB0874483C339B001A502800019B984703
:1017200024090135002C01D0BD42E0D3202FD3D1B4
:1017300003B0F0BCBB46B246A946A046F0BD684B1C
:1017400000210F229B460124CD082B004046083380
:101750009B001B5808000831002B00D19DE01700AA
:101760001F40BC461A420BD05F464E46BE5927006A
:1017700087403E4204D166465A4F3C35AD00EE519B
:101780001D0900D189E017002F402A4211D0260000
:10179000451CAE400195B4465D464E46AE59654681
:1017A0002E4206D1019D4F4EED083C353F01AD0064
:1017B000AF511D0A71D017002F402A4211D02600C8
:1017C000851CAE400195B4465D464E46AE59654611
:1017D0002E4206D1019D434EED083C353F02AD003F
:1017E000AF511D0B59D017002F402A420AD02600B6
:1017F000C51CAE400195B4465D464E46AE596546A1
:101800002E424ED01D0C48D017002F40BC462A4215
:1018100009D00126071DBE40B2464E46304DAD5997
:101820005646354245D01D0D37D016002E40B446E1
:101830002A4209D00126471DBE40B2464E46284DD9
:10184000AD59564635423ED01D0E26D016002E40CC
:10185000B4462A4210D00126871DBE40B2464E46ED
:101860001F4DAD595646354206D16646FD083C35FA
:1018700037061C4EAD00AF511B0F0730002B0CD0AC
:101880004D465E467759250085402F4205D1C00858
:10189000144D3C301B0780004351202900D053E7F2
:1018A00046E7019D0F4EED083C353F03AD00AF51BB
:1018B000A8E765462D04AC466646FF083C37BD00E8
:1018C000084FEE51AFE76646FD083C353705054E3B
:1018D000AD00AF51B8E7C0464C2000203041014078
:1018E0000C26002000400140094A10B594464024CF
:1018F000830063441A68C000624080341440802230
:10190000520113431C60034B9C466044416010BD70
:1019100004C0014000400140D0231B061B6830B5C5
:101920000500584243412F205B4283430D48EC0899
:101930008446072028408000814020000A4D3C302A
:1019400063448000A40041511B19002A04D0802266
:1019500092011343196030BDC022920113431960F4
:10196000F9E7C0463041014000400140F8B51D0094
:10197000D0231B061C680600604244412F206442AD
:1019800084432748F7088446072030408000814080
:101990003800244E3C3064448000BF008151E4197B
:1019A000002A11D080229201224311601C681E4E31
:1019B000A400A359002B15D0002D25D0A55101213D
:1019C0000D2000F0F7F8F8BDC0229201224311600B
:1019D0001C68154EA400A359002B0CD0002D18D064
:1019E000A551F0E7002DEAD000220D200F49A551A6
:1019F00000F042F9E3E7002DE5D000220D200B496D
:101A0000A55100F039F9DEE70D20084900F02EFA63
:101A1000D4E70D20054900F029FAA551D3E7C046C7
:101A200030410140004001404C2000209D16001034
:101A30000123D0228340120693629361094A402118
:101A40009446830063441A68C0004A4080311140C4
:101A50008022520113431960034B9C4605236044C6
:101A60004360704704C0014000400140024B1868C9
:101A70008007C00F7047C04600C0064070B5EFF346
:101A8000108C72B60D4D2B68002BFCD0BFF35F8F0E
:101A90000724CB08C618C05C01230C40A3401C00DF
:101AA0000440034207D118433070BFF35F8F2C60AE
:101AB0008CF3108870BD100001F050FF2C0100D095
:101AC000F8B54746CE46884680B5EFF3108C72B61F
:101AD000214D2C68002CFCD0BFF35F8F9A422CD88C
:101AE000D4080727055D061901241740BC402C4285
:101AF0001FD007210127894609E0D408055D061992
:101B00004C4639001440A1400C00294211D001324A
:101B10009342F2D201204042BFF35F8F00220E4B6E
:101B20001A608CF3108800280FDBC0BCB946B046A1
:101B3000F8BD254310003570EEE7BFF35F8F00233B
:101B40002B608CF31088012040424346002BECD0E0
:101B5000089801F003FFC0462C0100D00021044B7F
:101B6000044ABFF35F8F02C39342FAD17047C04665
:101B7000000100D0800100D0044A1078431CDBB281
:101B8000172B00D9102313707047C046700F002028
:101B900010B5064B064C82B00100009318221F239B
:101BA0002000FFF78DFF02B010BDC046C49C00109E
:101BB0006420002001238340002904D0034A1360DD
:101BC000034A13607047034A1360FBE780E200E0BA
:101BD00000E100E080E100E001238340014A13605E
:101BE0007047C04600E200E0084B10309B68800060
:101BF000C358002B07D0064A00209B1A2F229A4276
:101C00004041C0B270470020FCE7C04600ED00E054
:101C1000740F0020024B10309B688000C058704742
:101C200000ED00E070B50D00EFF3108672B60F4ABC
:101C30001368002BFCD0BFF35F8F0D4B10309B68F7
:101C400084001B590B4A934203D09D4201D001F0FE
:101C50009DFE074B9B681D51BFF35F8FBFF35F8FE6
:101C60000022024B1A6086F3108870BD240100D058
:101C700000ED00E0CD010010F0B557464E46DE46BF
:101C80004546E0B585B0060000911700EFF3108BD4
:101C900072B66A4A1368002BFCD0BFF35F8F002531
:101CA000674B5D579A46002D00DAA9E06B00654C42
:101CB00001935B199B009846A146C1444B4652468E
:101CC0009B7910361370604BB6009B6899590B1BBB
:101CD0002F2B33D95D4B994200D0ACE0019B42469B
:101CE0009C465B4B6544AD0063535A4B0232A218CD
:101CF000043B9B1A1B05584A5B0D651913436B8007
:101D0000564B0121AB80FF23AB71009BEF71AB60A1
:101D10004B460B4319004C4B9B689951BFF35F8FA7
:101D2000BFF35F8F0022454B1A608BF3108805B01C
:101D3000F0BCBB46B246A946A046F0BD01200A0051
:101D40008243D3798C46BB4231D84546130044497F
:101D50001B1B5B415943090D3D4B63533D4B023502
:101D60006519043B5B1B1B053B4D5B0D2B43AA46D2
:101D70004D466B800425AC465546E044131F444451
:101D80001B1B1B055B0D1D434B46997100999D80E4
:101D900099604946DF71334B01431360BBE758003C
:101DA000C01880002018C179B9422FD9020006233B
:101DB000D356002BF3DA02932B4B61460393131D8A
:101DC0009A4604235B429C46E14450464B461B1A0C
:101DD0001B055B0D9C46204B95719846634640461B
:101DE00003439380019B5A199200039BA418A3807C
:101DF000029B1C4AA371009B2260E771A3608AE7E3
:101E000001F0C4FD002553465D574FE790880293CB
:101E10004005131D9A46031561469C464046D4442E
:101E2000634604302018181AE0230005400D1B02F9
:101E300018430390C5E701F0A9FD4FE7240100D046
:101E40005D260020740F002000ED00E0CD010010A1
:101E500000A1FFFFA40F002000E0FFFF01BDFFFF76
:101E6000AAAA00000148804701BD0000F0B5DE4687
:101E700057464E464546E0B50C0083B0EFF3108858
:101E800072B65D4A1368002BFCD0BFF35F8F5B4BCB
:101E90005B499A68030010339F00D5598D4239D0B1
:101EA000A5424AD0574EAA1B2F2A33D80122924668
:101EB000824091464846544A126810400190484674
:101EC000524A1060BFF35F8FEFF305829346002AFA
:101ED00035D0934201D001F059FD2A0053469A4370
:101EE0009068844208D175E04B005B189B00F318A2
:101EF0009868A04234D01A00062151560029F3DA1E
:101F0000844253D0019B002B26D04A46404B1A6096
:101F10003D4B1A60394B9B68DD51BFF35F8FBFF3B8
:101F20005F8F0022344B1A6088F3108803B0F0BC36
:101F3000BB46B246A946A046F0BD0D00EAE72A001E
:101F400053469A4390688442D6D106201056130017
:101F5000002809DA0D0031E04A462C4B1A60D9E717
:101F600006201856002822DB420011188900741838
:101F70008A46A1689960E179D97106216156997103
:101F8000002925DBA488F11A640524155444091995
:101F9000E0240905490D24022143998013181D4AA4
:101FA0009B001178F31899711070ABE71300594634
:101FB000002914D1FF3191711749918015490A7890
:101FC0009A71164A9B1B5B415A43120D0A7099E79E
:101FD0001349E2E70620105613000028C4DA114A1C
:101FE0001149D21A083A5002400D014399800F4915
:101FF00052080A43DA8085E7240100D000ED00E0B2
:10200000CD010010740F002000E100E080E100E04D
:1020100080E200E05D26002001BDFFFFAAAA0000CB
:1020200001BD0000AE0F002000F0FFFF00F8FFFF31
:1020300070B5EFF3058101240443EFF3108C72B601
:10204000214A1368002BFCD0BFF35F8F1F4B0500A4
:102050001F4AED1A6D416A43120D1E4D8900AE688C
:1020600052B27658A6421CD00621595691421CD035
:1020700012215956914222D01E215956914220D008
:102080002A2159560324914210D0134B19781A7003
:102090008171BFF35F8F00220B4B1A608CF31088A5
:1020A00070BDAB680D4C5C50EFE70024610009196E
:1020B00089005B18FF21997109499980E5E701249E
:1020C000F4E70224F2E7C046240100D0740F002098
:1020D000AAAA000000ED00E05D260020CD0100105E
:1020E00001BDFFFF054B064A1360064A13605360AB
:1020F0009360D360136153619361704780808080E7
:1021000000E400E004E400E010B5084B084C82B0A5
:1021100001000093002205232000FFF7D1FC0028D6
:1021200001DB1F23181A02B010BDC046E09C00104E
:1021300068260020024B9C4661448900016070477C
:102140004000003410B50400FFF716FD0100200028
:10215000FFF7F0FFFF232371BFF35F8F10BDC04671
:1021600010B50400FFF708FD01002000FFF7E2FFB3
:10217000FF23A380BFF35F8F10BDC04610B50400DE
:102180000120FFF705FD034BC3189B002360BFF33D
:102190005F8F10BD40000034034B9C4661448900B2
:1021A0000160BFF35F8F70474000003483680B48C5
:1021B00010B58446614462441201090159189B1804
:1021C0005C684A680120944201D802D00020C0B265
:1021D00010BD1A680B689A42F9D8F7E7FFFFFF0FA6
:1021E00010B508000B690C009847002802D0206841
:1021F000616810BDE06000210020FAE70A4B196811
:10220000EFF3108072B60A68002AFCD0BFF35F8F2C
:102210001B68BFF35F8F00221A6080F3108840BFF5
:10222000002000217047C04620260020F8B5574600
:1022300045464E46DE46E0B598460CAB1C780DABE5
:102240001B78070091469A460568002C59D1AC7B53
:10225000002C3BD0660029683619033E89194B785B
:10226000AB73002B00D1EB7300238B704B700B70A2
:102270002D4BE218BB6812019B184A461A60424671
:102280005A600A9A9A600B9ADA6000238B704B703E
:102290000B706B7B9B46002B26D022006B68594647
:1022A000A86898475B465B005B442A68033B0028AC
:1022B00012D058469619B070D118D35C002B00D0BC
:1022C00073705B460C706B735C450ED0F0BCBB4604
:1022D000B246A946A046F8BDD3189C709119925DEC
:1022E000002A1CD15B460B706C734A464346387D0E
:1022F00000F02CFD051E0AD10E9B002BE6D01D70B0
:10230000E4E7660029683619033E8919B0E75346A9
:10231000002BF1D12100386800F060FFECE75A7023
:102320005B460B706C73E0E7FFFFFF0FF0B5DE4616
:1023300057464E4645460023E0B58BB00893684BA0
:102340008200D45800239B46099000F06BFC0200E9
:102350000B006068EFF3108A72B6564601680029D8
:10236000FCD0B246BFF35F8F21684F7B8C46002FB5
:102370002ED0A5685B49A9467918090189444946C8
:102380000868496805000E00AD1A9E41002E5FDD09
:1023900002000B00099800F0D9FC002300229946A6
:1023A000002306920793002398466368BFF35F8F6C
:1023B0005A461A608AF310884346002B12D100282F
:1023C000C3D10BB0F0BCBB46B246A946A046F0BD97
:1023D0000023002299460023069207930023002041
:1023E0009846E2E7089B494618023843C0476268AE
:1023F00005000E00EFF3108A72B61368002BFCD0B4
:10240000BFF35F8F002E41DB2B00334302D02369E3
:10241000002B56D12368D97B002905D01A684800C3
:1024200041185218033A57709A7B002A00D19F73C3
:10243000DF73E268013FD35D0133D3555B4623610F
:102440006368BFF35F8F5A461A608AF310887CE78F
:10245000002E02D1002D00D09AE70021604600F046
:102460003BFE4B461A685B68069207934B469B6897
:1024700098464B46DB689946E368DB19013B1B78BD
:1024800008931B020343236100208EE72369002B7E
:10249000C0D0069A079B8021521BB34109068B428C
:1024A00002D30122104B52420021049101310391C9
:1024B000494601914146200002970091FFF7B6FE80
:1024C000BCE700F0AFFB2A00330012184B4180211B
:1024D00009068B42E8D30122034B5242E4E7C0468F
:1024E00054250020FFFFFF0FFFFFFF7F10B5144CA6
:1024F0006368002B04D00A211248FFF71BFE10BDB1
:102500002300114A1021206800F002FD032000F092
:102510006BFB032000F082FC03200C4900F0D0FB91
:10252000FFF72AFB0A4B9C4603232375D0231B0687
:102530001B6860446375074B80006060DC60DAE70D
:10254000BC0F002020260020AD2100102D230010FC
:10255000400000345425002000487047BC0F002084
:1025600070B50500182003F0A1FC16490400020014
:10257000280000F09DFC10212060280003F0A8FC3A
:102580000121A060280003F0A3FCE060012000F01E
:1025900037FB050000F042FC28000B4900F090FBDF
:1025A000FFF7EAFA094B25759C46D0231B061B68EA
:1025B00060446375064BAD0080006060EC50200005
:1025C00070BDC046AD2100102D2300104000003426
:1025D00054250020F0B557464E464546DE46E0B548
:1025E00085B0019310AB1B780600039300239A4635
:1025F000984600927268EFF3108B72B61368002B46
:10260000FCD0BFF35F8F3568AC7B002C00D16EE04F
:1026100067002B683F19033FDB195A78AA73002A19
:1026200000D1EA73484AA118B2680901521800980B
:102630000199106051600E9991600F99D1604246E6
:102640009A705A701A706B7B9946002B00D16BE020
:1026500022006B684946A86898474B465B004B448C
:102660002A68033B002856D04846D719B870D118BD
:10267000D35C002B00D07B704B460C706B734C45C9
:1026800053D0F3681B19013B18787368BFF35F8F51
:1026900042461A608BF310885346002B08D1000283
:1026A000204305B0F0BCBB46B246A946A046F0BDEB
:1026B000039B002B46D00E9B00200F9998470300E8
:1026C0000B433FD004000D1E1ADA009A019B121B27
:1026D000AB410092019380221206934204D301235E
:1026E0001A4C5B4200930194039B9A4682E77368FD
:1026F000BFF35F8F1C608BF3108801204042D0E74E
:1027000000F090FA802200196941120600900191B0
:102710009142E9D3E3E7D3189C70D119D25D002A26
:1027200000D05A704B460B706C73307D009A019B41
:1027300000F00CFB82460028A3D02100306800F096
:102740004DFD9EE70020ACE7FFFFFF0FFFFFFF7F7F
:10275000407D7047F0B557464E46DE46454611006F
:10276000E0B585B006009C46109F194300D1E9E012
:102770006146DB170193009353401C00019B4B40C3
:102780001D0000980199241A8D4163460E997B60C3
:102790000F9BBE607B6139613A6000F043FA802391
:1027A000001969411B0600900191994204D301234D
:1027B000694C5B420093019400239846674B109745
:1027C000039300239946109B3700464698467A6843
:1027D000EFF3108B72B61368002BFCD0BFF35F8F42
:1027E0003D68AC7B002C00D179E063001B19033BF2
:1027F0001A00944602932B6863445A78AA73002AFD
:1028000000D1EA73564AA118BA6809015218009813
:10281000019910605160039991604146D1604A4628
:102820009A705A701A706B7B9A46002B00D17BE02D
:1028300022006B685146A868984753465B00534492
:102840002A68033B002800D164E0D1188C46514629
:10285000029810188170D35C002B00D0437063463F
:102860001C7053466B73350054455ED0FB687A6824
:102870001B19013B1B78BFF35F8F494611608BF337
:102880001088002D0CD147461B0223430135280038
:10289000FB6005B0F0BCBB46B246A946A046F0BD01
:1028A000434640461B699847061E24D043460CCB3E
:1028B000100018434CD014001D1E1FDA009A019B13
:1028C000121BAB410092019380221206934200D268
:1028D0007DE70123204C5B420093019477E73E00A3
:1028E00047467368BFF35F8F1C608BF3108801232A
:1028F00000255B42CBE747460023C8E700F092F98A
:10290000802200196941120600900191914200D283
:102910005DE7DEE70298D3189C701118125C002A5C
:1029200000D05A7053460B706C73387D009A019B2F
:1029300000F00CFA051E00D198E72100386800F07D
:102940004DFC93E700230124002501229C461CE74F
:102950004746350000239AE7FFFFFF7FE121001083
:10296000FFFFFF0FF0B504000D0006267642F717B3
:10297000C64636196F4100B584B08F4214D811D0C5
:1029800000F050F932003B00121A8B41002B15DC8D
:10299000002B3ED02000290000F082F904B080BC5A
:1029A000B846F0BD8642EBD90026002700F03AF980
:1029B00032003B00121A8B41002BE9DD0023029309
:1029C0000193154B3200009314483B00FFF702FEC1
:1029D0000028DFDB00239846BC46114A114F7B6A72
:1029E0009C4504D8B96A8E42D4D99C45D2D111688D
:1029F000EFF3108072B60B68002BFCD0BFF35F8F33
:102A00001368BFF35F8F4146196080F3108820BFC1
:102A1000E5E7002ABED0D1E7FD210010BC0F002061
:102A2000202600200040054070B5060000F0FAF8AE
:102A3000FA2204000D00002330000021920003F070
:102A4000D3F98023001969411B06994202D3012062
:102A500002494042FFF786FF70BDC046FFFFFF7F7F
:102A6000F0B5EFF30583CE46474680B505000C0070
:102A700085B0002B12D02A4A0020536AA34203D308
:102A8000926A0130AA4204D305B0C0BCB946B04630
:102A9000F0BD1B1B5A1E9341D8B2F5E7214E02939D
:102AA0000193214B0200009330000B00FFF792FDD1
:102AB000031EE0DD20BF7168EFF3108772B60A686D
:102AC000002AFCD0BFF35F8FDAB29446FF22306851
:102AD0001A40417B61450FD0016889465100884604
:102AE00049469044414403398978002904D1326928
:102AF000934209D1316107E0F1681B0A8A18013A53
:102B00001278DBB29A4207D07368BFF35F8F00225E
:102B10001A6087F31088AEE7614600F05FFBF3E7C9
:102B200000400540BC0F0020FD210010F0B5EFF380
:102B30000582D6464F4646461000C0B51038EFF322
:102B4000108872B6214C2368002BFCD0BFF35F8F36
:102B50000123190081401E4D1F006963AA461D4DC7
:102B600029601D4D2E78AC463500C5402F402B42C4
:102B700015D053465F6A194B8500EB589F4218D316
:102B80006246174B8E43EB581670BFF35F8F0022DF
:102B9000226088F31088002B06D0984704E0BFF32A
:102BA0005F8F276088F31088E0BCBA46B146A8461C
:102BB000F0BD0C4B92009C46624413681360BFF357
:102BC0005F8F0023236088F31088EDE7280100D091
:102BD000004005403C700540652600202C26002062
:102BE0003C1F0020D03F054010B5034B01001800EA
:102BF000024AFEF743FF10BD5C260020FC9C00103B
:102C000010B5064B064C82B001000093002203234E
:102C10002000FEF755FF02B010BDC046209D0010F9
:102C20005C260020034B596A0A00986A596A8A4256
:102C3000FAD170470040054070B504000D00174AF6
:102C4000536A1900966A536A8B42FAD13000190010
:102C500024184D41AB4216D813D0104B2A005B6AA2
:102C60009D4203D90D494B6A9342FCD3934207D14D
:102C70000A4A02E0516A994202D1916AA142F9D30B
:102C800070BDA642E9D9054B5B6A1C005A1CEFD007
:102C9000012201246442E5175242E3E70040054067
:102CA000064A536A9942FCD807D1044B02E05A6A9B
:102CB000914202D19A6A8242F9D37047004005409E
:102CC00070B504000D00EFF3108672B61A4A13684F
:102CD000002BFCD0BFF35F8F002D1BD02000FEF730
:102CE00099FF164981420AD02000FEF79BFF01217F
:102CF0002000FEF75FFF0123A340114A1360114B30
:102D0000A400E550BFF35F8F00220B4B1A6086F3DF
:102D1000108870BD0121A1400A4BA200D5500A4B7A
:102D200020001A788A4305491A70FFF79FF800219E
:102D30002000FEF73FFFE5E7280100D02D2B001013
:102D4000386005403C1F002065260020F0B54F4646
:102D5000D6464646C0B507002B4C616A0D00A66AF0
:102D6000616AA942FAD18B4208D805D00120E0BCA3
:102D7000BA46B146A846F0BDB242F7D9EFF3108A81
:102D800072B6224801680029FCD0BFF35F8F01258D
:102D9000BD401F491C4C8846097889462943C9B261
:102DA0008C46414660460870391D890065630A51AA
:102DB0001849B8004350216A0020294219D0616A9D
:102DC0000800A66A616A8142FAD18B4219D801D102
:102DD000B24216D8CC450BD00B4B1F221D625D634F
:102DE00001233A4093400C4A136043464A461A7006
:102DF0000120BFF35F8F0022044B1A608AF3108812
:102E0000B5E70020F5E7C04600400540280100D0A6
:102E1000652600202C26002080E200E0EFF3108CD5
:102E200072B60A490B68002BFCD0BFF35F8F0123F9
:102E30008340074A0748136202789A430270BFF33F
:102E40005F8F00230B608CF310887047280100D03F
:102E5000004005406526002070B506000D001400F6
:102E600000291DD0002A12D073688068984762003C
:102E70006B0012195B193168033A033B002808D034
:102E80008A189570C818CB5C002B0BD104702800F1
:102E900070BDCB189C7088188A5C002A05D105701B
:102EA0002000F5E753700470F1E75A700570F7E7FA
:102EB000F0B5CE460700894600B510210120160066
:102EC00003F006F803210500380003F001F84B4633
:102ED0006B600023FCB26B73013328602C73AE600F
:102EE000AB73EC73012C06D9421C0133DBB21370B7
:102EF00003329C42F9D1FF233B405A00D318C61835
:102F00000023033E2800737080BCB946F0BDC04664
:102F100010B583600023CCB2437301334260047365
:102F20008373C4730068421C012C05D90133DBB2E2
:102F3000137003329C42F9D1FF230B405A00D3187F
:102F4000C01800230338437010BDC04670B505009B
:102F50000C1E07D0630001681B19033BCB185A787D
:102F6000002A01D1200070BD5000801803380918D4
:102F700000204E784870210058702800FFF76CFF41
:102F8000310004002800FFF7E1FF0600002C20D0EC
:102F90000028E7D0320021006B68A86898477200CB
:102FA000630092191B192968033A033B002808D0D3
:102FB0008A189470C818CB5C002B00D05370067030
:102FC000D0E7CB189E7088188A5C002A00D05A700F
:102FD00004703400C6E7C046F0B557464546DE46A5
:102FE0004E46E0B50D006F0001687F19033F0400F5
:102FF000C85D83B00192CA19002850D043001B1845
:10300000033BCB185E78B446002E1AD1019E002EE9
:1030100042D0E67B002E04D073009B19CB18033BF3
:103020005D70A37B002B00D1A573E57300282FD121
:103030000023537003B0F0BCBB46B246A946A0467D
:10304000F0BD72006244033A8A1851788846002124
:10305000517089465970320001002000FFF7FCFED4
:1030600043468246002B07D05B0021684344033B64
:10307000CB185A78002A16D1424651462000FFF755
:10308000EBFE2168019BCA19002BC2D10028CFD0CA
:1030900043001B18033BCB1800219970C8E7019B24
:1030A000002BB6D1C4E750008018033809184878BF
:1030B000834648464870587041462000FFF7CCFED2
:1030C000594680462000FFF741FF4146020020009C
:1030D000FFF7C2FE8046CFE7F0B557464546DE46CD
:1030E0004E46E0B583B00191457B04006F00006857
:1030F0007F19033FC15DC219002952D04B005B18F4
:10310000033BC3185E78B446002E1CD1019E002EEE
:1031100044D0E67B002E04D073009B19C318033BF8
:103120005D70A37B002B00D1A573E573002931D11D
:10313000002328005370617303B0F0BCBB46B24655
:10314000A946A046F0BD72006244033A8218507846
:103150008046002050708146587032002000FFF7F2
:103160007BFE43468246002B07D05B002168434428
:10317000033BCB185A78002A17D14246514620000B
:10318000FFF76AFE019B01002068C219002BC0D125
:103190000029CDD04B005B18033BC318002098706A
:1031A000C6E7019B002BB4D1C2E75000801803385A
:1031B00009184878834648464870587041462000B0
:1031C000FFF74AFE594680462000FFF7BFFE414602
:1031D00002002000FFF740FE8046CEE770B50500F4
:1031E00000292CD0437B8B422ED04C000068641801
:1031F000033C0419A278002A21D053009B18033BFA
:10320000C25CC6188A4202D11BE0002A08D05300D3
:103210009B18033BC3185A788A42F6D162785A70D9
:10322000002301222800A3706370FFF7D5FE697B9D
:1032300002002800FFF710FE6873012000E0002064
:1032400070BD63783370EBE701221900FFF7C4FE0D
:10325000F2E7C046F8B5CE464746040080B50620E2
:103260000D0000F021FA061E53D0534B5349E318CA
:103270005A1E93418022120494465B429B0D504A91
:103280009B05634413604F4A136018008A6890439B
:10329000FBD1494B4C4AE31859424B4180215B001A
:1032A00049000620995200F0FFF92900C00001F002
:1032B00083FFC30932D14022012190466162A3629B
:1032C000266BF30736D427008025E36A00232C37CA
:1032D0006D013D432B600620266300F0E5F9414671
:1032E000800001F069FF236B06009846DB073BD4A2
:1032F0006023E26A5A400E3313402B604346236337
:10330000802310229B013B431A60304B236303232D
:10331000A3643000C0BCB946B046F8BD2C4A934205
:103320003FD900232B492C4A6162A362266B904649
:10333000F307C8D52200C02330329B011343234A30
:1033400006201A60656AA36AAD01ED1800F0ACF9B9
:10335000224901F031FFAD020100280001F02CFFED
:103360000021FFF769FCAEE72200C02330329B0149
:103370001343164A06201A60636AA26A9B019946A3
:10338000914400F091F94B4614499B02994601F093
:1033900013FF0100484601F00FFF0021FFF74CFC2E
:1033A000A6E77F229901884602400132520819009F
:1033B0009044130082E7C0460080FCBF00C000407C
:1033C00000E0004000F000403C2600200103000027
:1033D000FEFF0000FFFF0000C0FF3F004E0E000098
:1033E00010B50C2082B000F0B7F9FEF73FFB0028C3
:1033F00010D08B4B8B488B498B4A18605960986072
:10340000D960186159619861D961186259625A622C
:1034100002B010BD854CA06700F0F4F90122844B86
:103420001A60636C012BFCD10322824B1A607F4A25
:10343000936B012BFCD1013301217F4A7F4800931C
:10344000043300F037F905237D4A009301217D48BC
:1034500000F030F97C4B5A68FF2A02D880225200D3
:103460005A608022734B6E4C12011A602169002948
:1034700007D0606901F0A0FE013043001B18033B38
:10348000FDD2E022704B714819680A4002600222A6
:103490001968514001320A40042102609A681142C1
:1034A000FCD080216A4A09011160802252005A60D2
:1034B000684B2361684B5968FF2900D85A60032282
:1034C00001215B4B1A60644A93681942FCD0E023E7
:1034D0001068034061480360126803234A400221D8
:1034E00013405D4A036093681942FCD080215C4B15
:1034F0000901196080215B4B4900516063615A4B9F
:103500005A68FF2A00D859608022584B12011A606D
:10351000E169002907D0606901F04EFE01304300E7
:103520001B18033BFDD2E0234F4A11680B40504962
:103530000B6080214F4B090119608021394B4900F4
:103540005160E3614C4B5A68FF2A00D859608022D1
:103550004A4B12011A60216A002907D0606901F004
:103560002BFE013043001B18033BFDD2E023424AEF
:1035700011680B4042490B608021424B09011960E0
:1035800080235B0053608022264BD20223623E4B95
:103590005968914200D25A6080223C4B12011A6055
:1035A000616A002907D0606901F006FE013043001E
:1035B0001B18033BFDD2E023334A11680B4034490A
:1035C0000B608021334B090119608023DB025360BB
:1035D000154B6362304B5A68FF2A02D88022520092
:1035E0005A6080222D4B12011A60A169002907D070
:1035F000606901F0E1FD013043001B18033BFDD27F
:10360000E023254A11680B4025490B608021254B9A
:103610000901196080235B005360124BA361F7E638
:1036200018160020006CDC021BB700000080004070
:103630003CB0004030B00040002F6859008002408C
:10364000008C864700C0024030800040309000402F
:1036500030A00040001BB7003C8000403C90004080
:103660003CA00040405973075480004054B00040D3
:103670005490004054A000406080004060B0004082
:103680006090004060A000406C8000406CB0004042
:103690006C9000406CA000404880004048B0004062
:1036A0004890004048A00040014B8000C05870473F
:1036B00018160020F8B5040022481E0017000D005F
:1036C00001F07AFD0100380001F076FD069B36041A
:1036D0001B031E432368002B22DB1B4B1B49E318F3
:1036E0005A1E93418022920194465B421B0B184A5A
:1036F0001B0363441360174A13601F008A689743D3
:10370000FBD1C022231D92011A4321232560A06012
:1037100013602368002BFCDA0823E6601360F8BD11
:103720003F2322681340AB42D7D1A3681B051B0D72
:103730008342D2D1EE22E368D2021340B342CCD10D
:10374000EDE7C046001BB7000040FDBF00C00040D1
:1037500000E0004000F000408023024A9B00034349
:10376000D36270470080054010B580241C4BE405EF
:103770001C6000281AD001231A4C18431A4BDC6134
:103780001A4C44401C62596298628021144BC9054E
:103790001960174817490860E021C9041960002A18
:1037A00007D18022144B12061A6010BD0E4BD8614F
:1037B000EBE753019B1A9B009A18802312015B04CC
:1037C0009A4209D213000D490B60074B5A608022C0
:1037D000094BD2051A60E8E7094B1A00F3E7C04627
:1037E00000B00540D3C007B0008005402D3FF84F22
:1037F000FCFF01000820014000A00540FC2400203F
:10380000FFFFFF00AA23064A1B0113602F2305496F
:10381000D360054B19605368002BFCDA7047C04633
:103820000040024000B0FA00006002402C4B2D4ADC
:1038300070B51A602C4A2D4B2D491A6014008B6804
:103840009C43FBD12B4D2C4EB54208D2013E761B3A
:10385000B60808CD984723000134B342F9D1FFF7E9
:10386000BFFD264A214B1A60214A9368DB43DB01E6
:10387000DD09002BF9D14022214B224C224E9A67C0
:103880005A671A67DA66B44208D223682000002B10
:1038900020D00834FEF764FCB442F6D31B4C1C4E17
:1038A000C022B168200002F033FBB460FEF756F985
:1038B000FEF718FCFEF71AFE164C174EB44208D25B
:1038C000013E361BB60808CC98472B0001359E42B6
:1038D000F9D170BD0834FEF735FCB442D5D3DDE72D
:1038E00000E00040BFCDFBFEFE7F3C0000F000404A
:1038F00000C00040D8150020E8150020FFFFFF01A0
:1039000000F00140D0150020D81500200000002054
:1039100000ED00E0E8150020F415002000BEFDE7F2
:10392000094A03001068002805D00849C3188B42D3
:1039300007D81360704706480449C31810608B42CB
:10394000F7D901204042F5E7E020002000000420E4
:103950006C26002010B5FFF7E1FFC0460FB400B59C
:10396000084883B002F0A2FB049B002B07D005A9F6
:103970001800019101F0A6FB034802F097FB01201B
:10398000FFF7CCFF349D0010449D001010B5014896
:10399000FFF7E4FF489D00107047C046F8B5574652
:1039A000DE464E464546E0B599460A9B07009A46D4
:1039B0000D9B884693460B9C9B073BD10C9B9C42DE
:1039C0003DD21E1B0B9415000C005E442A004B4692
:1039D000013521002020B847B542F7D1A0460B9C05
:1039E000002C20D0454636195346321B013C185D49
:1039F00029004B46B847002CF6D12B0035009846DD
:103A00000D9B9B070FD55B46EC1A0C9BA3420AD972
:103A1000464698462A004B46310020200134B847DC
:103A200001354445F6D32800F0BCBB46B246A94652
:103A3000A046F8BD16001500002CD3D1E0E7160013
:103A4000002CCFD11500EEE7F0B54F464646D646DE
:103A5000C0B584B098460EAB1B7894469946129B2D
:103A60000D9C109F119E9A0725D4002E65D1BC4253
:103A700021D201221A409246202C00D1E9E00C9A72
:103A8000551E302202E0202C00D17BE001342A5563
:103A9000A742F8D85246002A0DD0B4420BD20C9A55
:103AA000551E3022202C02D171E0202C2DD0013463
:103AB0002A55B442F9D1DA063CD55A052ED4002C49
:103AC00028D10F9A102A00D1B6E0022A00D1BCE01A
:103AD00030220C9C227001244A46002A65D15A07E4
:103AE00000D499E02B220C9D2A55013403930C9BA2
:103AF00062460093029643460194FFF74FFF04B0DD
:103B0000E0BCBA46B146A846F0BD2024DA06EDD5A1
:103B10005A0503D4A74266D0B44264D00F9A102A43
:103B200071D0022A57D0202CE0D022000134302559
:103B30000C9FBD54202CD9D0CEE7012215001D408A
:103B4000AA461A4236D04A46002A4AD10C321A42B4
:103B500047D1BC42A1D2202C91D1202E17D82024AD
:103B6000DA06C3D55A051BD4202F01D0202ED5D17B
:103B70001F220F9D102D6FD0022DD8D162250C9FD2
:103B8000BD54D0E75246002A79D0202EBDD920243A
:103B9000DA06ABD55A0503D4202FE9D0202EE7D082
:103BA0000F9A102AA2D12024A0E72D220C9D2A557D
:103BB00001349BE7BC4200D37DE7202C00D05EE7B8
:103BC000DA06F0D55A05EED4202F62D0202EEAD1A5
:103BD00034001F22CDE7202C00D187E722000134DA
:103BE000CCE7013EB5E7621E012CC2D10F9A102A24
:103BF00000D06AE79A063BD558220C9C2270283ADE
:103C00006270022468E79A060ED4202CCBD078226A
:103C10000C9D2A55013486E71A0700D466E7202256
:103C20000C9D2A55013461E7202CBCD058250C9AF4
:103C300012191570013476E79A0608D558220C9CA3
:103C4000227030226270022446E76032F7E7782261
:103C5000F5E7002A83D1B3E7A21E013C9D0603D4F9
:103C600078250C9FBD5460E758250C9FBD545CE738
:103C700078220C9C2270483A627002242CE7DA0603
:103C800000D433E75A058BD4202F00D044E71F22FD
:103C90006FE73C001F226CE710B5002800D110BD73
:103CA00002F0B8F9FBE7C0460B0010B5002802D0BF
:103CB00049681B68984710BDF0B557464E464546C3
:103CC000DE46E0B599B08246894690460893229A2E
:103CD000239B1000190001F030FD002800D0CDE03A
:103CE000229823990122D94B524201F021FD00284C
:103CF00000D0C3E0229823990122D54B524201F013
:103D000009FD002800D0B9E0229823990022002361
:103D100001F000FD002800D0F1E1229E239F8023C6
:103D2000269ADB001A400D92269A1A4201D10623E8
:103D300024938023269A1B011A403B009346099640
:103D4000334300D0B3E0002A00D0C2E100230024B6
:103D50000A930B94002304250993259B0024AB426E
:103D600000D95C1B0223269A1A400C92269A134211
:103D700003D06B426B415B421C40099B002B07D078
:103D80000A9A0B9B3000390001F063FC06000F001B
:103D9000229823990022002301F0BCFC002803D0C4
:103DA000802109067B181F00269AAA4B00960197CE
:103DB0001340089E0493249B0394029342463300CD
:103DC0004946504600F0AAF90400002D67D0202093
:103DD000269A4946024013005A4253415B42621CF4
:103DE00018400A92330022004530D047099A6F1ECE
:103DF000D317D4185C40D30F9B46002501E0202D3B
:103E000013D008AA94461F23200063440A210135D9
:103E10005E1901F0D1F93031317020000A2101F032
:103E2000CBF926000400092EE9D8052306930023C8
:103E300004930A3303935B46089E029310AB0A9ADD
:103E4000009349463300504605970195FFF7FCFD66
:103E50000C9A0400002A22D04246851A259AAA42CA
:103E60001DD9B04657461600220043464946202039
:103E70000135B8470134AE42F6D810E0269B4246E1
:103E80000493259B49460393249B50460293229B0F
:103E9000239C00930194089B00F040F9040020004B
:103EA00019B0F0BCBB46B246A946A046F0BD6A4B6D
:103EB00078009C46400D604401F052FC674A684B14
:103EC00001F0E5FB674A684B01F0BAFB674A3B0328
:103ED0001B0B1A4304000D0009981100644B0022CB
:103EE00001F0A5FB634A644B01F0D1FB02000B001B
:103EF0002000290001F0A4FB01F04AFC099001F028
:103F00002FFC5E4A5E4B04000D0001F0C0FB002256
:103F10005C4B01F095FB01F03BFC5B4A5B4B2900DD
:103F20000C90200001F0B3FB04000C980D0001F090
:103F300017FC574A574B01F0AAFB02000B00200068
:103F4000290001F074FB04000D0002000B000A942C
:103F50000B9501F09CFB04000D000A980B990200E0
:103F60000B0001F06DFB00220E900F914A4B2000D8
:103F7000290001F06EFB0022484B01F061FB0200BA
:103F80000B002000290001F064FB0022444B01F0EB
:103F900057FB02000B002000290001F05AFB0A9A8F
:103FA0000B9B0D0080210400C905002001F03FFBA0
:103FB00002000B002000290001F042FB02000B0070
:103FC0000E980F9901F045FB0022284B01F038FBB9
:103FD000344B0C9C9C4664442305002201F057FBA3
:103FE00004000D0002000B00300039000A940B950C
:103FF00001F090FB00285DD123002A00C625099915
:1040000063318D42AD4159466D420435002900D1DE
:10401000A3E6134363D030003900234A234B01F059
:104020007FFB002807D0002230003900204B01F030
:1040300071FB002853D1249B002B00D18DE60D9BF2
:104040005A1E9341249AD31A249386E6FFFFEF7FEA
:10405000FFFFEFFFFFF7FFFF01FCFFFFFB799F5022
:104060001344D33FB3C8608B288AC63F0000F03F9B
:104070000000F83F61436F63A787D23F71A37909BE
:104080004F930A400000E03F1655B5BBB16B0240AC
:10409000EF39FAFE422EE63F00002C40000024409B
:1040A00000001840FF0300002D431CEBE2361A3FCE
:1040B00080842E41099B0022013B09932000164B6E
:1040C000290001F0C6FA0A00010003000A910B92D0
:1040D00094E7002300240A930B9400230993249A65
:1040E000099B9A4214DDD31A013B24938023269A1C
:1040F000DB001A4300230025269209932DE6802237
:1041000012069446229B1E00239B63441F0006E672
:1041100000232493EAE7C04600002440F0B545465A
:10412000DE464E465746E0B595B08B4690469946DA
:104130001E9A1F9B0A9019001000209D01F0FDFAA5
:10414000002800D0B0E11E981F990122C74B5242AF
:1041500001F0E0FA002800D037E11E981F990122F3
:10416000C34B524201F0E4FA002800D0A7E01E98A9
:104170001F990022BF4B01F0DBFA002800D088E035
:104180001E981F990022BC4B01F0C4FA002800D0F1
:104190007FE01E981F990022002301F0BBFA00283F
:1041A00000D0FAE000230B938023229C229ADB00AC
:1041B0001C401A4200D102E1092D00D87CE106A979
:1041C0008C462C00172200233021093C6244013325
:1041D000D154EF1A202B00D132E1A342F7D10022B3
:1041E000A44B069207931E981F9901F0D1FA05007F
:1041F00001F0B6FA02000B001E981F9901F017FAA1
:10420000069A079B01F043FA0890099101F0E4FA3D
:10421000060001F0A1FA02000B000898099901F0CC
:1042200006FA0022954B0890099101F081FA0028C6
:1042300000D1D2E00136300001F08EFA069A079BD9
:1042400001F06EFA002801D000260135AA46002FA1
:1042500000D098E0280001F083FA02000B001E98BD
:104260001F9901F0E4F9854B002206000F0001F0D0
:1042700051FA0CAB9A46002845D100223000390093
:104280007E4B01F055FA00283DD1EB073BD50135B7
:1042900039E0229B42460493219B594603930A9896
:1042A0001E9B1F9C0295009301944B46FFF704FD53
:1042B00015B0F0BCBB46B246A946A046F0BD229B55
:1042C0005B0767D403226E4B2299019203912199D7
:1042D0000291009342464B4659460A98FFF75EFB0F
:1042E000E6E706AA94461723280063440A2101340E
:1042F0001E1900F039FF3031280031700A2100F01A
:1043000033FF051E76D0202CEBD10323229A1340D5
:10431000012B1DD1219B002B1AD00B9B002B00D011
:10432000BBE0229A0C33134200D0B6E0219BA3429B
:1043300000D887E006AB9C4617223023624404E095
:104340002199013413558C4259D0202CF8D12024C6
:10435000229B01940393219B02935346B9E706AA3B
:10436000944617230A216344300001341D1900F0DC
:1043700023FF3031297030000A21013F00F01CFF7B
:10438000092E46D90600202CE9D155460CAB202435
:104390009A46B8E704223B4B96E71E9A1F9B0020E3
:1043A000002101F044F901230B938023229C229ADF
:1043B000DB001E901F911C401A4200D0FCE6002238
:1043C000314B0627069207930DE7229B0393219B0F
:1043D0000293042301932D4B7BE70022089809994F
:1043E000264B01F097F9002800D02FE7002E4FD17F
:1043F00001362BE70323229A1340012B66D0202C91
:10440000A6D00B9B002B1FD02D23524613550134F1
:104410009EE75546202CB9D030233A19002F08D0FA
:10442000172006A9013409180B55202CAED0944250
:10443000F6D10CAB9A462E2352461355013462E74F
:104440002024CCE6202C83D0229B5B0708D4229B1F
:104450001B0700D47CE7202352461355013477E72D
:104460002B2352461355013472E7C046FFFFEFFF7E
:10447000FFFFEF7F65CDCD4165CDCDC10000E03FB1
:104480005C9D0010549D001080842E41649D00109E
:10449000F30700D4DAE60136D8E6219B013B2193ED
:1044A000A34200D946E7AAE7229B0393219B0293EC
:1044B00003230193074B0CE7074BEA009B185C684A
:1044C0001B682F000693079400248CE6219B002B89
:1044D00095D022E7609D001048A00010F0B5574627
:1044E000DE464E464546E0B5A5B01F002E9B9146E0
:1044F0000D93CA4ACA4B82468B461A60002900D1E6
:1045000029E2002338789846002800D12BE2C54BD9
:1045100044460C93C44B55464E460E930AE0631C2A
:104520009846220033005946A84744463878002868
:1045300000D187E001372528F1D108239A46043BB2
:104540009946023B9846013B00229C460B943878E2
:10455000791C0300203BDBB2102B03D80C9C9B0082
:10456000E3589F460300303B0B9C0B92092B3AD932
:10457000002398462A2800D1DDE000239A462E2801
:104580004BD00300683BDBB2122B1ED80E9A9B0067
:10459000D3589F4663460F001A43D8E743460F009F
:1045A0001A43D4E74B460F001A43D0E710230F00FD
:1045B0001A43CCE753460F001A43C8E780235B0039
:1045C0000B9A78781A430B9201310F0067284FD865
:1045D0002428A4D90300253BDBB2422B9FD8934962
:1045E0009B00CB589F46002398460B9B47469C4612
:1045F00000E00131BB00DB195B001F180878303F79
:104600000300303B092BF4D963460B930023B846D3
:104610009A460F0001312E28B3D180200B9AC0009A
:1046200002430B9230225242944678780B00844425
:104630006246092A00D8AAE12A2800D1B9E10F0070
:1046400001319EE7A046AA46B146C84503D30123DF
:104650005B424B4498464B46424659460020D04761
:10466000200025B0F0BCBB46B246A946A046F0BD2E
:1046700001006939C9B20F2900D950E701238B40E5
:104680009C466B4B994663464A4613400F936246DD
:104690004B461A4200D068E10A2956D0072900D0BB
:1046A0003DE70D9B02CB9846002900D092E10B9B81
:1046B00010211A008A4310001131084381468020DE
:1046C0001A00C0000240110003421CD114AB9C46EA
:1046D0001F220F2362440D959C4615000F9B0B94DF
:1046E00002E0202B0CD0110064460C402000373033
:1046F000092C00D807380133E8540A090F29F0D8EB
:104700000B9C0D9D0F934B46082206935346059232
:1047100008320392002204930F9B029201931CAB78
:1047200022000093594633002800FFF78DF94346D5
:1047300004000D93FAE60D9B04CB9046002A79DB2A
:1047400078780D930F00013117E70D9B02CB14937E
:104750000B789C4618005346002B00D134E100280A
:1047600015D05346013B013399460D940B9C894467
:104770004A460B00A14601E0934203D05C78013326
:10478000002CF9D14A465B1A0D9C0B920F938023A3
:10479000DB0099460B9A13400D934B461A4204D006
:1047A0000F9B534501D953460F93022399460B9A09
:1047B00013400B934B46134200D1F5E16346002BA7
:1047C00000D1D6E10D9B002B00D182E10B1BD1461D
:1047D00031009A463B00A1442E005F464D46220020
:1047E0009B46894609E04B463900541CB047534666
:1047F000185D002800D192E122009542F3D14B468A
:104800005A46A946BB46350017001E004C460B9B76
:10481000002B00D0ADE1149B0D9387E6DD44001022
:10482000F8240020AC9E0010F09E00103C9F001069
:10483000419000000B9A283802430B9242465242A4
:10484000787890460F000D93013196E678786C28C1
:1048500000D15DE180230B9A5B001A430B9201317A
:10486000B3E680239B00ABE67878682800D148E166
:1048700080230B9A01311A430B92A6E6672800D1D8
:10488000B2E0472800D11AE1452800D11CE10B9A7B
:104890000721049242460D9B0392073352468B43F5
:1048A000190002920CC92800009201930D91220078
:1048B00033005946FFF700FA040037E6462800D1D6
:1048C0008DE00B9A0721049242460D9B0392073319
:1048D00052468B43190002920CC9280000920193A2
:1048E0000D91220033005946FFF718FC04001DE625
:1048F000631C98462200330059462520A8474446A9
:1049000014E60D9B04330F93631C99460B9B9A0787
:1049100000D40AE10D9B2200187859463300A847BD
:1049200043464444012B00D86FE1B0462E002500D9
:104930004C46B9465F4622004346013439002020E8
:10494000B047AC42F7D12C00BB4635004F46464637
:104950000F9B0D93EAE5D64B38789A46002398468C
:10496000002800D0D3E500246FE66F2842D000D89D
:10497000FDE11023782800D19BE00B9A9A430B921B
:104980000A239C46002314930A330F9338E05746BA
:104990000B9AB900C919490001330F181878303F34
:1049A000010030390929F4D9BA460B921F00591C6D
:1049B000E7E50D9BB87804CB0237D143C9170A400D
:1049C00092460D93791CDCE5002800D1DFE6022336
:1049D0005B42C8E621200B9A0243914676E62023EB
:1049E0000B9A1A430B926CE780230B9A1B011A4314
:1049F0000B924CE708239C460023149308330F9333
:104A00000B9880230200DB001A40110002001842BC
:104A100000D080E00C239A431000802302009B000A
:104A20001A400B92184200D0F1E0802302005B0094
:104A30001A4091460D9A04321492184200D0C3E2F3
:104A4000430600D5D7E0030600D421E30D9B1B8865
:104A50000993002B00D02DE110339843002900D199
:104A600028E10023994643460593534604930F9B40
:104A700006900393002302934B4601931CAB220044
:104A80000093594633002800FEF7DEFF0400C2E61B
:104A9000582809D0622800D0E3E202239C46002374
:104AA000149302330F93ABE720230B9A1A430B9214
:104AB000103B9C460023149310330F93A0E78023F0
:104AC0000B9A1B011A430B9220230B9A1A430B9249
:104AD000DDE60B1B9A460F9B99463B0037005E466E
:104AE0009B4622003B003100A84753460134185D25
:104AF0000028F6D14B460F935B46B3463E001F009D
:104B000085E6C0230B9AB8781A430B92F91C5CE532
:104B1000C0239B00F6E70D239A4310007DE75B4618
:104B20003500BB464E461F0071E64346012B66D951
:104B3000631E434432002E001D003B00A2465F4628
:104B400091469B4622004B46013439002020B04755
:104B5000AC42F7D15B463500BB464E46A1465446B3
:104B60001F000D9B4A461878594633004444A84715
:104B7000EEE60F9BA146984500D84CE64444E41A63
:104B8000B0462E0025004C46B9465F4622004346FB
:104B9000013439002020B047AC42F7D12C00BB468D
:104BA00035004F46464636E60F98804500D873E2FA
:104BB0004346E218131A32002E001D003B009146B6
:104BC0005F469B460F9122004B460134390020205E
:104BD000B047AC42F7D15B46BB461F0043460F9936
:104BE00001330F930B7835009C464E4660460028F3
:104BF00000D0E7E50FE60D9B1B78099329E70D9B95
:104C00002200187859463300A8474C46A0E60D9A72
:104C1000FA3BFF3B07329A430133994691444B4696
:104C20000D931368526815921A4306D110329043BF
:104C300000220992002900D083E06122810600D57C
:104C40004122D2B20A9214AA91460A9A00210A3A43
:104C50000B9242461792524618925A46B246099112
:104C60001E001F31149B4944BB4616941A9500241C
:104C7000674698468946159D19901B920AE0303286
:104C8000D2B24B4601341A55A8454CD0202C4CD0FA
:104C900006000D003A0000233000290000F0CAFA97
:104CA000D2B2092AEBD90B9B9C466244D2B2E8E708
:104CB000993900106123820600D54123DBB20A3BFB
:104CC0000B93434614A91F228C4615935346624406
:104CD000B2460D9417974C468046A9461700099D89
:104CE0000F9E169308E03033DBB201343B55B542DA
:104CF0000ED3202C0CD005003100280000F05CFA07
:104D0000CBB20929EFD90B9A94466344DBB2ECE7A6
:104D1000159B40469846169B4D465646A1469A46D8
:104D20000D9C179F9FE6B742B0D9179B56469846F1
:104D3000189B5F469A461B9B09949B46169C1998A4
:104D40001A9D43460593534604930F9B0690039385
:104D500000230293099B01931CAB22000093594648
:104D600033002800FEF770FE0400FFF7DFFB10237E
:104D70000B9A9A430F92692800D091E10B998023F6
:104D80000A00DB001A4010000A00194203D011216A
:104D900018008A430F920F9A802311009B0019403C
:104DA0008C461A425BD1802311005B001940894672
:104DB0000D9904310B911A4200D0B2E013005B064A
:104DC00000D4EDE00D9B1B781A00D90F0D91002B3C
:104DD00000D1A3E0100014AA944642461F23159266
:104DE00052466344A846BA464D461494B146040060
:104DF0001F00169201E0202D0FD020000A2100F0A4
:104E0000DBF901357E193031317020000A2100F0C4
:104E1000D3F926000400092EEDD8159B4E46A9466D
:104E200045469846169B57469A46149C0F9B0693F8
:104E300043460593534604930A2303930D9B029321
:104E40004B4601931CAB22000093594633002800C7
:104E5000FEF7FAFD0B9B04000D93FFF767FB07229B
:104E60000D9B07339343013294469C4462460D9256
:104E70000CCBD90F0B911100194300D19BE0D9172E
:104E8000139112915140109113995940119110981A
:104E90001199129A139B801A99411090119114AA9A
:104EA0009446424600231592524699461692320085
:104EB0001F336344A8464E46BA4614941F00109C04
:104EC000119D914601E0202E10D0200029000A22D9
:104ED000002300F0AFF9013630322B00BA550D0037
:104EE00022000400002BEED1092AECD8159B109467
:104EF0001195454698464B46169AB14657461E00B0
:104F00009246149C0F9B0693434605935346049385
:104F10000A2303930B9B02934B461CE7002885D181
:104F200059E70D9B1B68DA0F1100002B00D1A6E09A
:104F3000DA179818504014AA91461F2342464B4452
:104F4000A8460D94169704006546B1461F001491BB
:104F5000159201E0202D0FD020000A2100F02CF93D
:104F600001357E193031317020000A2100F024F91A
:104F700026000400092EEDD8159BAC464546984600
:104F8000149B4E4619000D9C169F0F9B0291069391
:104F900043460593534604930A230393634650E71D
:104FA00013001B066ED50D9B00229B5ED9175A1865
:104FB0004A4092B209E7002399460028A2D1002274
:104FC0000023109211936AE70D9B1B689946002BF2
:104FD00003D110339843002938D16123820600D5CC
:104FE0004123DBB20A3B0D9343461693534614A963
:104FF0001F228C4617932B0062444D46B2461594EF
:1050000018978046170099460B9C0F9E08E0303396
:10501000DBB201343B55B5420ED3202C0CD0050039
:105020003100280000F0C8F8CBB20929EFD90D9A59
:1050300094466344DBB2ECE7169B40469846179BC8
:1050400056464D469A460B94189F159C4346059329
:10505000534604930F9B06900393002302930B9BEC
:105060000BE50B9980230A00DB001A4010000A00B0
:10507000194200D08BE610239A430F928BE600284A
:1050800083D158E70D9B1B68D9175A184A409CE6F4
:105090000D9B1B680993DCE4030001330F93A5E526
:1050A0000B926DE400B585B003910121029000934D
:1050B000034813004A4202A9FFF710FA05B000BDE9
:1050C000A93C001010B5094A0300146884B0002CF4
:1050D00008D0012200910648524203A9A0470120AE
:1050E00004B010BD00F0E2FF0020F9E7F824002032
:1050F000993C001001480421014B1847F00F002093
:1051000025510010142310B50100188804331B88A2
:10511000984710BD162310B50100188802331B886C
:10512000984710BDF8B54746CE4680B50F1E19D03A
:1051300014239946043304000025012698464B4663
:105140001888434621681B88984701C4431E98412C
:10515000013540420640AF42F1D13000C0BCB946F3
:10516000B046F8BD0126F8E7124A936F9B0815D2A6
:105170009066D166002905D0FFE7FFE7FFE7516F92
:10518000106F704704B580210906C21751400028EE
:1051900000D0C84304F0E4FB002104BDF0B5146E58
:1051A000556E576F166FFFF7E3FF14665566576726
:1051B0001667F0BD000000D0114A936F9B0813D210
:1051C00010665166002905D0FFE7FFE7FFE7516F42
:1051D000106F704704B5002801D00020C04304F0D0
:1051E000BFFB002104BDC046F0B5146E556E576F6D
:1051F000166FFFF7E5FF1466556657671667F0BD33
:10520000000000D094464A4A926F9208624601D24A
:1052100028E0C046F0B5464E346E756E776F366F37
:1052200000F020F89446424A1466556657671667A0
:105230006246F0BD94463E4A926F9208624601D2A1
:1052400054E0C046F0B53A4E346E756E776F366FE7
:1052500000F04CF89446364A146655665767166750
:105260006246F0BD002B24DB11D000293EDA00B5E8
:10527000C943404200D1013100F038F8C9434042EF
:1052800000D10131DB43524200D1013300BD002A7D
:10529000EBD1002801D1002905D00020C90FC90792
:1052A00001D1C043410800B504F052FB00220023A5
:1052B00000BD00B500290ADBDB43524200D10133B7
:1052C00000F014F8C943404200D1013100BDC94388
:1052D000404200D10131DB43524200D1013300F0A2
:1052E00005F8DB43524200D1013300BD002923D130
:1052F000002B18D1002A0CD0BC460D4F38667A66B8
:1053000000210023FFE7FFE7FFE77A6F386F67466A
:105310007047002801D00748010000B504F018FBD1
:105320000022002300BD02000B0000200021704776
:10533000000000D0FFFFFFFF002B00D0BFE0130CE8
:1053400028D1002AE7D080B4114F39667A66FFE78A
:10535000FFE730B4040C7B6F396F1B0423433B66BB
:105360007A66FFE7FFE7FFE7C04684B27B6F3D6FD9
:105370001B0423433B667A66FFE7FFE7C046002332
:105380002C042D0C7A6F386F00196941B0BC70473E
:10539000000000D0F0B594460025140E01D1120291
:1053A0000835140F01D112010435940F01D1920078
:1053B0000235D40F01D152000135D40B0134254FF1
:1053C0007C66254C3C660E0C93B2FFE7FFE7FFE7D7
:1053D0003C6F6643360C7703BE467343DF0B5B04BA
:1053E000C01AB941130C7343DB18C91ACE086643BF
:1053F000360CB64493B273431F0F1B01C01AB94158
:10540000130C73431F0B1B05C01AB941860D8F0285
:105410003E436643360C092D24DB520A7243801A40
:105420007703460A6643360C16235B1BDE40DF40DB
:10543000BF1964466643821B70460435063301007B
:10544000D940A840C01900D30131A24206D200239E
:10545000F0BD0000000000D0FFFFFFFF121B013075
:10546000F3D3F1E709277F1BFE406446A2B27243E3
:10547000801A00D20139220C7243130C1204821AD2
:1054800099410B007046043513370100F940A840DC
:10549000801900D30131002B02D1A2420AD2F0BD03
:1054A000013000D30131121BFAD2013BF8D1A242E4
:1054B00000D2F0BD013000D30131121BF7E7F0B587
:1054C0001C0C00D080E00CB400251C0A04D11B0287
:1054D000160E3343120208351C0B04D11B01160FA4
:1054E0003343120104359C0B04D19B00960F3343C8
:1054F00092000235DC0B02D192185B4101351C0091
:10550000971864410134464F7C66464C3C660E0C4D
:10551000FFE7FFE7FFE7C0463C6F6643360C7703C3
:10552000BE4697B27743C01B00D20139C01B00D2E0
:1055300001399FB27743C91BC91B170C77437E04FF
:10554000FF0B801BB941CE086643360C0C2D33DBB4
:10555000B644120B1F053A431B0B97B27743C01B8F
:1055600000D201399FB27743C91B170C77433E0421
:105570003F0C801BB941860D8F023E4366432927AD
:105580007F1BFE400C3D7746AF40BF1930BCA2B236
:10559000ABB272437343801A9941220C7243130CCD
:1055A0001204801A994102000B000137001BA94127
:1055B000F9D2781E0021F0BD0C277F1BFE407746F4
:1055C0007F0BAF40FF19E0E700245D1C07D0144FAC
:1055D0007D663966FFE7FFE7FFE7FFE73C6F95B2BF
:1055E0009EB265436643401BB141150C1E0C6543DA
:1055F000664336042F0C3E432D04401BB1419942B3
:1056000004D202000B0020000021F0BD01D1904225
:10561000F7D3801A994101349942F2D3F6E700009A
:10562000000000D0FFFFFFFF48404140484018B451
:105630001B4B5B68FC46019308BD04DFBB580010A0
:1056400018B4174B1B68FC46019308BD00DFC55812
:1056500000109446134A926F920809D2624618B419
:105660000F4BDB68FC46019308BD0CDF7D5B00102F
:105670000C4AF0B5146E556E576F166F6246FFF701
:10568000EEFF084A1466556657671667F0BD18B4F2
:10569000034B9B68FC46019308BD08DF215A0010AC
:1056A00068170020000000D0FFB550404240504035
:1056B00059404B40594000E0FFB5154F4C00640D78
:1056C00003D0BC4204D10C0314D80020090D0905F5
:1056D0005C00640D03D0BC4204D11C030AD8002234
:1056E0001B0D1B0501264B4009D44B4003D58B42B3
:1056F00000D18242FFBD9942FCD19042FFBD0B43D5
:10570000DB1803431343F5D0C9434918FFBD00001C
:10571000FF07000000B5FFF7CFFF804100BDC04686
:1057200000B5FFF7C1FF01D9002000BD012000BD79
:1057300000B5FFF7B9FF804100BD012040054A00D8
:10574000121804D85A00121801D8002070470120FE
:1057500070470020704700000021002805D17047E5
:10576000C1174840401AFAD0C90713B5064B1B6849
:1057700098470CBC441CA2401005120B0349091B9E
:1057800009051943114310BD1C2600201F04000009
:1057900010B54C00620D8023D218DB00D21A5B05D5
:1057A0007E2A10DD9E3A13DACC1709034908194303
:1057B0005242D140640001341532202A05DAD0402B
:1057C0000843604310BD002010BD0846604310BD73
:1057D000C80FC018013810BD18B4044B5B6AFC46F2
:1057E000019308BD24DF2D5D001000006817002024
:1057F000132370B51D78012D15D010DD1D48FFF75E
:1058000089FC1D4C01008022200000F081FB022D4C
:105810002DD01A48FFF776FC194B186070BD194B54
:10582000154CA364F5E7174B134C23606360A3602A
:10583000E36023616361A361E36123626362A36246
:10584000E36223636363A363E36323646364A36426
:10585000E36423656365A365E36523666366A36606
:10586000E36623676367A367E367A364D1E7054B38
:10587000A364CEE753440000681700204C330000B7
:105880001C2600208958001007B5604601880A0AC6
:105890000230DF2AFAD1C9B2820804D302884088D4
:1058A0000004104300E00068014A5050039007BD17
:1058B000681700200FB403BC0CBCF0B50124E4074A
:1058C000634000E0F0B50C0DCF0F661E3605891B56
:1058D000640503D3C943404200D30131640D03D0B2
:1058E000661CF60A07D0E41B00207F00791C89079C
:1058F0008912803C24031D0DDF0F6E1E36059B1B95
:105900006D0503D3DB43524200D301336D0D03D049
:105910006E1CF60A07D0ED1B00227F007B1C9B0744
:105920009B12803D2D032F1B661B58D4A446202EAE
:1059300046DA20371400BC401D00BD40F240334120
:105940002A4380185941CB0F05D0C943C0430022D8
:1059500064425041514162464D0D28D10D0D07D191
:1059600000281FD0241940414941013A0D0DF9D0BA
:10597000640006D3013000D30131002C01D140086E
:105980004000013A0BD4941CE40A04D112051144DE
:10599000DB071944F0BDD907204B194300E0D907B4
:1059A0000020F0BD0029DDD1002CDBD1F0BD01329B
:1059B000C6074008CD0728434908002EE1D0D9E7A3
:1059C0003C2E29DA203E40371400BC4000D0012490
:1059D000F24014431A00BB401C43D317ACE7AC465B
:1059E000202F08DA20360400B4400D00B540F840FE
:1059F00039412843A5E73C2F0CDA203F403604000C
:105A0000B44000D00124F84004430800B1400C43E6
:105A1000C117EAE710001900002494E70000F07FA6
:105A2000F0B50C0D661E3605891BE60A6405640D8B
:105A300002D0651CED0A04D0002001210905803C3C
:105A40002403A4461C0D671E3F05DB1BE70A640503
:105A5000640D02D0651CED0A04D0002201231B0551
:105A6000803C24037740644497B484B296B2744374
:105A7000070C7E43150C6F4380B26843361802D37F
:105A8000012000043F183004350C00197D41844684
:105A900088B29AB250430C0C62431F0C7C438EB206
:105AA0007E43921902D301263604A4191604170C5A
:105AB0003618674101BC81B29AB25143040C62436B
:105AC0001B0C5C4380B25843121802D3012000041F
:105AD00024181004130C401863412D185E41002057
