:1000000000800020BD01000025C00000E1BF00000D
:10001000E1BF0000E1BF0000E1BF0000E1BF000060
:10002000E1BF0000E1BF0000E1BF000025C000000B
:1000300025C00000E1BF00009DB40000A1B4000095
:1000400025C0000025C0000025C0000025C000001C
:1000500025C0000025C0000025C0000025C000000C
:1000600025C0000025C0000025C0000025C00000FC
:1000700025C0000025C0000025C0000025C00000EC
:1000800025C0000025C0000025C0000025C00000DC
:1000900025C0000025C0000025C0000025C00000CC
:1000A00025C0000025C0000025C0000025C00000BC
:1000B00025C0000025C0000025C0000025C00000AC
:1000C00025C0000025C0000025C0000025C000009C
:1000D00025C0000025C0000025C0000025C000008C
:1000E00025C0000025C0000025C0000025C000007C
:1000F00025C000009DCE000025C000000DD80000E6
:1001000025C0000055DF000025C0000025C000000C
:1001100025C0000025C0000025C0000025C000004B
:1001200025C0000025C0000025C0000025C000003B
:1001300025C0000025C0000025C0000025C000002B
:1001400025C0000025C0000025C0000025C000001B
:1001500025C0000025C0000025C0000025C000000B
:1001600025C0000059E2000025C0000025C00000A5
:1001700025C0000025C0000025C0000025C00000EB
:1001800025C0000025C0000025C0000025C00000DB
:1001900025C0000025C0000025C0000025C00000CB
:1001A00025C0000025C0000025C0000025C00000BB
:1001B00025C0000025C0000025C00000574B4CF2B0
:1001C000205210B5DA814DF62812DA8100BF00BF47
:1001D0000BF02CFF524B4FF010621A63514A9A6396
:1001E000514ADA63514A136913F4807303D153619E
:1001F0004FF4A85313614E4B9A78110703D59A78A0
:1002000042F008029A704B4B4B482A221A704B4B13
:10021000DA1C121AC11E22F00302994288BF002282
:1002200047490BF009FE474B4748DA1C121AC11E1A
:1002300022F00302994288BF0022002110F09AFFA9
:10024000424943484FF4DE720BF0F6FD414B424AFF
:10025000802103F8011B9342FBD14FF0E0233C4A7D
:10026000C3F8082D3D4B8A221A70A3F5805324222F
:100270005A70A0221A709A799207FCD59A79D406FE
:10028000FCD4374B9A7902F00C02082AFAD10322E7
:100290001A7140225A719A799006FCD5304A9379A6
:1002A0005906FCD51E4B2F4959640221996420211F
:1002B0001170917901F00C010C29FAD12A4A5A6087
:1002C0004FF0E023294A5A6100229A6107221A61FD
:1002D000274AC3F8202D62B60CF000F9134B5B6976
:1002E000DA0705D523480CF0EDF8234B234ADA61F1
:1002F000234B1B785B0609D51F4C204BE2699A42C1
:1003000004D11C480CF0DEF80023E3610BF094FEEE
:1003100011F022FD0BF088FDFEE700BF0020054034
:1003200000800440823F04000100002B00D0034005
:1003300000D0074000E007402087FF1FB08FFF1F5D
:10034000EC8B01007C9DFF1FB08FFF1F00000000A1
:100350000082FF1F00E400E05FE400E00050064080
:100360000040064000000301C0100500FF760100B8
:1003700000002020AD36276900E00340A5C3945A51
:1003800000F00740FFFFFFFFFFFFFFFFFFFFFFFF42
:10039000FFFFFFFFFFFFFFFFFFFFFFFFFFFFFFFF6D
:1003A000FFFFFFFFFFFFFFFFFFFFFFFFFFFFFFFF5D
:1003B000FFFFFFFFFFFFFFFFFFFFFFFFFFFFFFFF4D
:1003C000FFFFFFFFFFFFFFFFFFFFFFFFFFFFFFFF3D
:1003D000FFFFFFFFFFFFFFFFFFFFFFFFFFFFFFFF2D
:1003E000FFFFFFFFFFFFFFFFFFFFFFFFFFFFFFFF1D
:1003F000FFFFFFFFFFFFFFFFFFFFFFFFFFFFFFFF0D
:10040000FFFFFFFFFFFFFFFFFFFFFFFFDEF9FFFF23
:100410000548064B1B1AD90F01EBA301491002D066
:10042000034B03B118477047B08FFF1FB08FFF1FFA
:100430000000000008B5054B1BB105490548AFF3A6
:100440000080BDE80840FFF7E3BF00BF00000000E8
:10045000B08FFF1FE48B010000207047704700BF82
:10046000036D0BB101207047406D003818BF0120AB
:10047000704700BF10B50446806D18B10FF020FE24
:100480000023A365236D2BB104F11800BDE81040D3
:1004900009F032B8636D002BF6D110BD10B50446DB
:1004A000806D00B110BD4FF480700FF001FEA065AB
:1004B000B0B1236D002202703BB101464FF480724F
:1004C000184608F041FDA06D10BD636D002BE9D00A
:1004D00001464FF48072184606F098FAA06D10BDE0
:1004E0000148A06510BD00BFC88FFF1F38B5056D5E
:1004F0006DB10BB1002038BD1146284607F082FAD5
:100500000028F7D02846BDE8384007F013BC446DFA
:10051000002CEFD0204604F03FFF0028EAD0204610
:10052000BDE8384005F05ABD8A79A2F150031B0698
:1005300020D4F0B54B79046D0D798E784F78097819
:10054000013385B002F26C72DBB244B103918DE8E5
:10055000E0000221204607F081FB05B0F0BD406DB0
:100560000028FAD003918DE8E000022105F086FC16
:1005700005B0F0BD0020704710B50446006D80B195
:10058000037813F0700F00D110BD002107F03AFA84
:10059000606D0028F8D0BDE810400022002304F070
:1005A000FBBE606D0028EFD090F8313013F0500F93
:1005B000EAD0BDE810400022002304F0EDBE00BFE9
:1005C00010B50346006D82B00C4620B30DF1060253
:1005D00001A906F03FFE38B3BDF80430BDF806208F
:1005E00053EA020120D0C2F3451C02F01F00D20AD8
:1005F000C3F343114000A2705A0A0139207003F07E
:100600001F0302F5EA62012084F801C023716171C1
:10061000A27102B010BD586D30B10DF1060201A9F2
:1006200004F054FD0028D7D1002002B010BD00BF57
:1006300010B50346006D82B00C4620B30DF10602E2
:1006400001A906F0F7FD38B3BDF80430BDF8062067
:1006500053EA020120D0C2F3451C02F01F00D20A67
:10066000C3F343114000A2705A0A0139207003F00D
:100670001F0302F5EA62012084F801C02371617151
:10068000A27102B010BD586D30B10DF1060201A982
:1006900004F00AFD0028D7D1002002B010BD00BF31
:1006A0000369B3B110B41C680B48E46884420CD1F0
:1006B000186D10B110BC07F077BB586D10B110BCAD
:1006C00005F000BD002010BC70471846234610BC42
:1006D00018470020704700BFAD090000006990B1C5
:1006E0000368154A1B69934225D1036D63B11878DD
:1006F00010F0080007D0D8695B69C01A48BF6FF0D6
:100700000040704718467047436D002BFAD093F8AD
:10071000310010F00800F6D0186919685A695B6852
:10072000401A62EB0303B0F1004F73F10003EAD308
:100730006FF0004070471847910A0000036973B1D9
:100740001A68084952698A4207D1186D08B107F042
:100750001DB8586D18B104F007BE184610474FF089
:10076000FF307047E1080000036963B11A68074968
:1007700092698A4208D1186D08B107F069BA586DBC
:1007800008B105F033BA70471846104771090000E8
:10079000036923B310B51968124A8C68944282B079
:1007A00014D1186D48B101220DF1070106F020FFA8
:1007B00090B19DF8070002B010BD586D0028F8D028
:1007C00001220DF1070104F0FBFCF1E701220DF11C
:1007D00007011846A047EBE74FF0FF30EBE74FF07B
:1007E000FF30704721090000036D13B158690021E3
:1007F0007047436D13B1D3E900017047184619469D
:10080000704700BF036D13B1D86900217047436D75
:1008100013B1D3E90401704718461946704700BF69
:10082000F0B595B00022234F01924FF47A7418313D
:10083000054604A8CDE9122202948DF80C200097F9
:1008400008F0C6FE129B002B29D05C200BF044FC64
:10085000019BC360029B03619DF80C300375164B2E
:1008600003600026154B83600446466004A91830D7
:1008700008F014FE4FF47A73AB606368104AA76007
:100880000133A6656E602A602E732C6163600D4B88
:10089000009304A808F030FE284615B0F0BD139B65
:1008A000002BD2D1064A6B60AC602B732A602B619F
:1008B000EDE700BF147B0100647B0100CC7A0100EE
:1008C000387B0100F07A01000346806C08B106F025
:1008D0005DBFD86C08B104F047BD4FF0FF307047E2
:1008E0000346006D08B106F051BF586D08B104F021
:1008F0003BBD4FF0FF307047036D33B11B7813F0F1
:10090000700F14BF012000207047406D30B190F887
:10091000313013F0500F14BF01200020704700BF8A
:100920000346006D08B106F063BE586D08B104F0CF
:1009300047BC4FF0FF30704700B50346806C83B072
:1009400058B101220DF1070106F052FE01280CD129
:100950009DF8070003B05DF804FBD86C28B10122B4
:100960000DF1070104F02CFCF0E74FF0FF30F1E748
:100970000346006D08B107F06BB9586D08B105F07A
:1009800035B970470346806C08B107F061B9D86C7F
:1009900008B105F02BB970470346806C08B107F029
:1009A00003BAD86C08B105F08DBB70470346006DE3
:1009B00008B107F0F9B9586D08B105F083BB70476D
:1009C00000B5034683B0806C8DF8071038B1012262
:1009D0000DF1070107F0E8F903B05DF804FBD86CEE
:1009E0000028F9D001220DF1070105F06BFB03B0DF
:1009F0005DF804FB8A79A2F150031B0620D4F0B500
:100A00004B79046D0D798E784F780978013385B074
:100A100002F26C72DBB244B103918DE8E000042174
:100A2000204607F01BF905B0F0BD406D0028FAD054
:100A300003918DE8E000042105F020FA05B0F0BD37
:100A400000207047836C53B1187810F008000DD067
:100A5000D8695B69C01A48BF6FF000407047C36C2B
:100A6000A3B193F8310010F0080000D17047186965
:100A700019685A695B68401A62EB0303B0F1004FD2
:100A800073F10003F2D36FF0004070471846EDE7B2
:100A9000036D53B1187810F008000DD0D8695B6968
:100AA000C01A48BF6FF000407047436DA3B193F880
:100AB000310010F0080000D17047186919685A69B0
:100AC0005B68401A62EB0303B0F1004F73F100035F
:100AD000F2D36FF0004070471846EDE710B5036998
:100AE00082B08DF80710BBB11968104ACC689442E7
:100AF00015D1186D30B101220DF1070107F054F93D
:100B000002B010BD586D0028FAD001220DF1070186
:100B100005F0D8FA02B010BD184602B010BD01228F
:100B20000DF107011846A04702B010BDAD09000045
:100B300038B50446806D0C4B236018B10FF0C0FA35
:100B40000023A365236D04F118054BB1284608F076
:100B5000D3FC064BA360284608F0CEFC204638BDE7
:100B6000636D002BF2D1F4E7647B0100F07A0100A1
:100B700038B50446806D0E4B236018B10FF0A0FA13
:100B80000023A365236D04F118056BB1284608F016
:100B9000B3FC084BA360284608F0AEFC20465C215D
:100BA0000BF09CFA204638BD636D002BEED1F0E7C8
:100BB000647B0100F07A010038B5044649B108466B
:100BC0000D4611F05DF9236802465B682946204610
:100BD00098472046BDE838400AF0EABE30B4029C8F
:100BE00011469C4634B1012C1CD0022C0ED00020A2
:100BF00030BC7047056DF5B14FF0FF33934274EB95
:100C00000C04F4D3284630BC06F0FCBE026D0AB3D7
:100C1000D36959184CF10003002BE8D130BC1046C1
:100C200006F0F0BE026D62B1536959184CF1000331
:100C3000002BDCD1F2E7406D0028D8D030BC04F0A6
:100C4000ABBB406D0028D2D0D0E900238A184CEB12
:100C50000303F3E7406D0028C9D0D0E904238A18C4
:100C600030BC4CEB030304F097BB00BFF0B53C4C29
:100C70003C4AA3689BB007210AA80FF0DDFE07AE2F
:100C800002220AA906A810F0C1FB002502220DF1DC
:100C90002A0108AF30468DF81A5010F0B7FB022237
:100CA0000BA938468DF81E5010F0B0FB2E4A009666
:100CB00006AB092101970AA88DF822500FF0BCFE5F
:100CC000E3686068A66804930EF03CFB02460B469E
:100CD0002068264DCDE902230EF034FB244ACDE9ED
:100CE000000133462D210DA80FF0A6FE2C696CB132
:100CF0000DA811F0C5F823681E49DB688B42024637
:100D000027D1206DC0B10DA907F04EF817480AF0A1
:100D10004FFE2B6943B11A68174992698A421CD168
:100D2000186D80B106F094FF144A154B12680992B1
:100D3000099A1A601BB0F0BD606D0028E6D00DA9BD
:100D400005F0C0F9E2E7586D0028EDD004F04EFF41
:100D5000EAE70DA920469847D8E718469047E3E709
:100D60002C87FF1F087501000C7501004087FF1FCD
:100D700018750100AD090000710900008C97FF1F74
:100D80000891FF1F70B50569234B03600446002DD1
:100D900032D06E68013E6E6076BB2B681F4ADB6AFC
:100DA00093422FD1A86D10B10FF08AF9AE652B6D6B
:100DB00023B305F1180008F09FFB2569E5B12B6806
:100DC000174A5B68934224D1A86D164B2B6018B16B
:100DD0000FF076F90023AB652B6D05F11806A3B172
:100DE000304608F089FB104BAB60304608F084FBBE
:100DF0005C2128460BF072F9204670BD6B6D002B0C
:100E0000D7D1DAE728469847D7E76B6D002BE7D1B3
:100E1000E9E728469847EFE7387B010075040000B2
:100E2000710B0000647B0100F07A010070B5056968
:100E3000254B03600446002D32D06E68013E6E6083
:100E400076BB2B68214ADB6A934233D1A86D10B17F
:100E50000FF036F9AE652B6D43B305F1180008F0BD
:100E60004BFB2569E5B12B68194A5B68934228D191
:100E7000A86D184B2B6018B10FF022F90023AB6559
:100E80002B6D05F11806C3B1304608F035FB124B47
:100E9000AB60304608F030FB5C2128460BF01EF9B1
:100EA000204614210BF01AF9204670BD6B6D002B03
:100EB000D3D1D6E728469847D3E76B6D002BE3D113
:100EC000E5E728469847EBE7387B0100750400000A
:100ED000710B0000647B0100F07A01002DE9F04104
:100EE000554B56491A689AB044F20223064606A8A2
:100EF00008F01EFC189B002B7BD05C200BF0ECF85C
:100F00004F4B0025C0E90035079BC3604D4B836004
:100F1000089B03610AAF9DF82430037504463946E7
:100F2000183008F0BBFA484BA3604FF47A73039370
:100F30006368464AA5650133029501928DF8105009
:100F400005946360DFF80881CDF81880384608F012
:100F5000D3FA314601A80AF0FDFC059C002C45D0CF
:100F600023683C4EDB6AB34259D1A06D18B10FF033
:100F7000A7F80023A365236D002B48D004F11800C7
:100F800008F0BAFA059D6C68013C6C6074BB2B6874
:100F9000DB6AB34246D1A86D10B10FF091F8AC6591
:100FA0002B6D002B37D005F1180008F0A5FA059C31
:100FB000E4B12368284A5B6893423AD1A06D204B84
:100FC000236018B10FF07CF80023A365236D04F1B2
:100FD000180553B3284608F08FFAC4F8088028464D
:100FE00008F08AFA5C2120460BF078F81AB0BDE8C8
:100FF000F081199B002B80D1144A02934FF47A712F
:1010000003918DF81030019205930AAF9AE7636D52
:10101000002BB3D1B6E76B6D002BC4D1C7E72046D8
:101020009847AFE728469847C1E7636D002BD1D1B9
:10103000D3E720469847D9E72887FF1FA492FF1FD0
:10104000647B0100CC7A0100147B0100387B010035
:10105000F07A010075040000710B00002DE9F041E9
:10106000574B58491A689AB044F20223064606A81C
:1010700008F05EFB189B002B7ED05C200BF02CF858
:10108000514B0025C0E90035079BC3604F4B83607F
:10109000089B03610AAF9DF8243003750446394666
:1010A000183008F0FBF94A4BA3604FF47A730393AE
:1010B0006368484AA5650133029501928DF8105086
:1010C00005946360DFF81081CDF81880384608F089
:1010D00013FA314601A80AF03DFC01A80AF068FCA9
:1010E000059C002C45D023683C4EDB6AB3425AD1A4
:1010F000A06D18B10EF0E4FF0023A365236D002B53
:1011000049D004F1180008F0F7F9059D6C68013C1E
:101110006C6074BB2B68DB6AB34247D1A86D10B119
:101120000EF0CEFFAC652B6D002B38D005F118000A
:1011300008F0E2F9059CE4B12368294A5B68934210
:101140003BD1A06D204B236018B10EF0B9FF0023F6
:10115000A365236D04F118055BB3284608F0CCF9AC
:10116000C4F80880284608F0C7F95C2120460AF038
:10117000B5FF1AB0BDE8F081199B002B7FF47DAF5D
:10118000144A02934FF47A7103918DF81030019252
:1011900005930AAF96E7636D002BB2D1B5E76B6D8F
:1011A000002BC3D1C6E720469847AEE728469847AC
:1011B000C0E7636D002BD0D1D2E720469847D8E72F
:1011C0002887FF1FA492FF1F647B0100CC7A0100D7
:1011D000147B0100387B0100F07A010075040000E7
:1011E000710B00002DE9F041574B58491A689AB02D
:1011F00044F20223064606A808F09AFA189B002B30
:101200007ED05C200AF068FF514B0025C0E9003514
:10121000079BC3604F4B8360089B03610AAF9DF837
:101220002430037504463946183008F037F94A4B24
:10123000A3604FF47A7303936368484AA56501334A
:10124000029501928DF8105005946360DFF81081CB
:10125000CDF81880384608F04FF9314601A80AF059
:101260009FFB01A80AF0A4FB059C002C45D0236835
:101270003C4EDB6AB3425AD1A06D18B10EF020FF8C
:101280000023A365236D002B49D004F1180008F05A
:1012900033F9059D6C68013C6C6074BB2B68DB6A9C
:1012A000B34247D1A86D10B10EF00AFFAC652B6DAB
:1012B000002B38D005F1180008F01EF9059CE4B1A8
:1012C0002368294A5B6893423BD1A06D204B236081
:1012D00018B10EF0F5FE0023A365236D04F1180587
:1012E0005BB3284608F008F9C4F80880284608F0DF
:1012F00003F95C2120460AF0F1FE1AB0BDE8F08146
:10130000199B002B7FF47DAF144A02934FF47A713E
:1013100003918DF81030019205930AAF96E7636D43
:10132000002BB2D1B5E76B6D002BC3D1C6E72046C9
:101330009847AEE728469847C0E7636D002BD0D1A9
:10134000D2E720469847D8E72887FF1FA492FF1FBF
:10135000647B0100CC7A0100147B0100387B010022
:10136000F07A010075040000710B000010B58AB01E
:1013700002460C4601A82C4902F03CFA22232246E0
:1013800001A903A802F03CFA284803A902F076FA62
:101390002222002126480FF0EDFE2448322102F0DF
:1013A0000DFA044650B1214802F07CF902F0FEF833
:1013B0008B281FD0002420460AB010BD1B4802F025
:1013C00071F902F0F7F80028F4D0062119480DF061
:1013D0000BFC164802F066F902F0F2F823460146CB
:1013E0000A2215480AF0FCFA13480AF0E1FA2046EE
:1013F0000AB010BD0D4802F055F9104902F0E8F8A6
:101400000E4802F0E1F8062130B90D480DF0ECFB72
:1014100009480AF0CDFACEE70A480DF0E5FB064888
:101420000AF0C6FAC6E700BF00A21300BC91FF1F76
:101430007492FF1F3C7501004488FF1FB091FF1F8D
:101440002C7501003475010000B5092185B03C48B8
:101450000DF0CAFB3B480AF0ABFA3B493B4810F0A1
:10146000A3F908B30E213A480DF0BEFB35480AF047
:101470009FFA374901A80AF073FB01A8FFF7EEFDB8
:1014800001A80AF0A7FB334901A80AF069FB324919
:101490000023222201A80AF0ADFC01A80AF09AFB61
:1014A0002D492E48FFF762FF2D49284810F07CF99E
:1014B000002841D002212A480DF096FB21480AF06D
:1014C00077FA284901A80AF04BFB01A8FFF7C6FDEF
:1014D00001A80AF07FFB244901A80AF041FB002380
:1014E00022221D4901A80AF085FC01A80AF072FB1E
:1014F00019491A48FFF73AFF1C4B1D4801221A7080
:1015000010F0BEFC1149C0F1630219480FF00AFF48
:10151000184901A80AF024FB01A8FFF7DFFC01A885
:101520000AF058FB124901A80AF01AFB01A8FFF7BC
:1015300095FD01A80AF04EFB05B05DF804FB00BF65
:10154000447501004488FF1F507501004092FF1F41
:1015500058750100687501007492FF1F364A7B417F
:1015600070750100747501007C750100C98FFF1F43
:10157000CC8FFF1F8875010000B5072185B03A4860
:101580000DF032FB39480AF013FA374901A80AF086
:10159000E7FA01A8FFF762FD01A80AF01BFB344936
:1015A000344810F001F9002830D0072132480DF0FE
:1015B0001BFB2E480AF0FCF92F4901A80AF0D0FACB
:1015C00001A8FFF74BFD01A80AF004FB2B4B2C48A8
:1015D00001221A7010F054FC2649C0F16302284819
:1015E0000FF0A0FE274901A80AF0BAFA01A8FFF7F8
:1015F00075FC01A80AF0EEFA214901A80AF0B0FA38
:1016000001A8FFF72BFD01A80AF0E4FA1E491948CA
:1016100010F0CAF820B30C211C480DF0E5FA13486D
:101620000AF0C6F9194901A80AF09AFA01A8FFF7C9
:1016300015FD01A80AF0CEFA154901A80AF090FAA2
:1016400014490023222201A80AF0D4FB01A80AF0C1
:10165000C1FA1049104805B05DF804EBFFF786BEEB
:1016600005B05DF804FB00BF987501004488FF1FBA
:10167000707501004092FF1FA0750100C98FFF1F08
:10168000CC8FFF1FA875010050750100B8750100CF
:10169000687501007492FF1F3A4A7B4100B507212B
:1016A00085B03A480DF0A0FA39480AF081F9374977
:1016B00001A80AF055FA01A8FFF7D0FC01A80AF02A
:1016C00089FA3449344810F06FF8002830D00721E7
:1016D00032480DF089FA2E480AF06AF92F4901A81C
:1016E0000AF03EFA01A8FFF7B9FC01A80AF072FA65
:1016F0002B4B2C4801221A7010F0C2FB2649C0F176
:10170000630228480FF00EFE274901A80AF028FAC4
:1017100001A8FFF7E3FB01A80AF05CFA214901A840
:101720000AF01EFA01A8FFF799FC01A80AF052FA84
:101730001E49194810F038F820B30C211C480DF050
:1017400053FA13480AF034F9194901A80AF008FAC3
:1017500001A8FFF783FC01A80AF03CFA154901A88B
:101760000AF0FEF914490023222201A80AF042FBE4
:1017700001A80AF02FFA1049104805B05DF804EBF3
:10178000FFF7F4BD05B05DF804FB00BFC8750100AC
:101790004488FF1F707501004092FF1FD075010043
:1017A000C98FFF1FCC8FFF1FD87501005075010036
:1017B000E8750100687501007492FF1F3A4A7B4189
:1017C00000B5082185B025480DF00EFA24480AF02E
:1017D000EFF8224901A80AF0C3F901A8FFF73EFC7F
:1017E00001A80AF0F7F91F491F480FF0DDFF002894
:1017F00030D009211D480DF0F7F919480AF0D8F842
:101800001A4901A80AF0ACF901A8FFF727FC01A8C2
:101810000AF0E0F9164B174801221A7010F030FB5D
:101820001149C0F1630213480FF07CFD124901A871
:101830000AF096F901A8FFF751FB01A80AF0CAF9CE
:101840000C4901A80AF08CF901A8FFF707FC01A8D0
:101850000AF0C0F905B05DF804FB00BFF87501009F
:101860004488FF1F047601004092FF1F08760100A4
:10187000C98FFF1FCC8FFF1F147601002DE9F041A7
:1018800093489AB001F010FF914801F00BFF01F06E
:101890008FFE10B91AB0BDE8F0818D4801F002FF4B
:1018A00001F084FE9028F5D1894801F0FBFE8949BA
:1018B00001F0ACFE884801F0A7FE01F09FFF8749C8
:1018C000054606A80AF04CF906A8FFF707FB06A88C
:1018D0000AF080F9824B83491A6806A844F2022371
:1018E00007F026FF189B002B00F0BD805C200AF05B
:1018F000F3FB7D4B0026C0E90036079BC3607B4BA2
:101900008360089B03610AAF9DF824300375044689
:101910003946183007F0C2FD754B01936368A66520
:1019200001336360734BA3604FF47A7302968DF8B2
:10193000106005940393DFF8C081CDF81880384615
:1019400007F0DAFD00231022294601A80AF048F822
:1019500001A80AF02DF8059C002C4CD02368674F95
:10196000DB6ABB4240F09D80A06D18B10EF0A8FB71
:101970000023A365236D002B00F08E8004F1180076
:1019800007F0BAFD059E7468013C7460002C32D1EA
:101990003368DB6ABB4240F09180B06D10B10EF04D
:1019A0008FFBB465336D002B00F0838006F11800C7
:1019B00007F0A2FD059CF4B12368514A5B6893428D
:1019C00040F08380A06D484B236018B10EF078FB87
:1019D0000023A365236D04F11806002B71D0304657
:1019E00007F08AFDC4F80880304607F085FD5C21C9
:1019F00020460AF073FB374801F03CFE302822D81D
:101A0000312200213F480FF0B5FB334801F028FE9A
:101A10000446304801F02EFE2146024639480AF0BD
:101A20000BFA394B9D4232D0384B9D422AD0384B6D
:101A30009D4239D0374B9D427FF42CAF1AB0BDE8A0
:101A4000F041FFF7BDBE344906A80AF089F806A8A0
:101A5000FFF744FA06A80AF0BDF81E4801F00AFE96
:101A6000FFF7C0FBCCE7199B002B7FF43FAF204A68
:101A700002934FF47A7103918DF81030019205931F
:101A80000AAF58E71AB0BDE8F041FFF7DDBC1AB065
:101A9000BDE8F041FFF770BD636D002B7FF46EAFC2
:101AA00070E7204698476DE71AB0BDE8F041FFF7B0
:101AB000F5BD736D002B7FF479AF7BE73046984717
:101AC00078E7636D002B8AD18CE72046984792E730
:101AD000BC91FF1F6491FF1F6091FF1F24760100DE
:101AE0002887FF1FA492FF1F647B0100CC7A0100AE
:101AF000387B0100147B0100F07A010075040000BE
:101B0000710B00004092FF1F3A4A7B41364A7B41ED
:101B1000AC919041BCDD5642307601002DE9F04198
:101B20002F4C0FCC90B005AD0FC50FCC0FC594E86E
:101B300007000C3485E8070094E8030003AC84E850
:101B4000030005AD0DF13F06B52001E015F8010FCA
:101B50000CF02CF9B542F9D1224E4FF47A700AF00C
:101B60007FFD33680193019D05F59C5508350DF106
:101B70001307B52001E014F8010F0CF017F9A74284
:101B8000F9D100240227A04602E00CF051F948B92F
:101B900033680293029B9D42F7D80024204610B080
:101BA000BDE8F0810CF058F907F140036B443CB1FB
:101BB00013F82C3C834207F10107EED12B2FEDDC0B
:101BC000B52804D0622805D04FF00008E0E74FF0B8
:101BD0000108DDE7B8F1000F18BF4446D8E700BFA1
:101BE000C07C01008C97FF1F2DE9704F194D0446F2
:101BF000284609F0AFFB824628468B4609F0CAFB0F
:101C000000238046D5F8800085F8893085F8493072
:101C100085F8793089460DF0CFFF0F490EF0D4F8E2
:101C20000EF0FAF95946064650460DF0BBFE4946FD
:101C3000206040460DF0B6FE084AEB6CD5F89010D7
:101C40006060A2FB03235B09E6602046A36021617C
:101C5000BDE8708F3090FF1F0000C8421F85EB5118
:101C600030B5164C89B006E00CF0F6F8C1B220464B
:101C700009F00CFB90B90CF0DBF80028F4D1FFF769
:101C8000FDFD0F4B0F4A1B680793079B12689B1AB9
:101C9000B3F57A7F0CD8012009B030BD68466C4698
:101CA000FFF7A2FF0FCC084D0FC523682B60E6E7B6
:101CB000FEF7DCFF012009B030BD00BF3090FF1FF0
:101CC0008C97FF1F0891FF1F2C87FF1F38B501213C
:101CD00004200AF089FC002104200AF051FC0021B4
:101CE00005200AF04DFC0D4D00242146284609F040
:101CF00057FE284609F05CFE64200AF0B1FC012181
:101D000004200AF03DFC19200AF0AAFC013400214D
:101D100004200AF035FC0A2CE7D138BD4488FF1FA7
:101D200038B51E481E4C1F4D01F0A6FC1E4801F0A0
:101D30003BFC1E4801F046FC1D4801F05BFC1D48C1
:101D400001F096FC1C4808F0DDFF21462A461B489E
:101D50000DF08EF921462A4619480DF089F92146E1
:101D60002A461848184C0DF083F9184B18491C6086
:101D70001E204FF496744FF0FF3258609860DC607C
:101D8000002001241A619C829A61DA611C8483F824
:101D9000220058629962D9621A6338BDBC91FF1F54
:101DA000850D00002087FF1F5491FF1FB091FF1F7A
:101DB0006091FF1F4891FF1F3090FF1F4087FF1F5A
:101DC0005C87FF1F7487FF1FC487FF1F1491FF1FCD
:101DD0006C80010030B54FF4165189B01348144C93
:101DE00009F0A6FC32200AF03BFC0FCC0DF1040CEC
:101DF000ACE80F0094E807000DF11F058CE8070020
:101E000001ACB52001E014F8010F0BF0CFFFAC429C
:101E1000F9D10BF009FF05484FF4E13109F088FCD6
:101E2000642009B0BDE830400AF01ABCEC87FF1FFF
:101E3000887C0100F0B595B06D46FFF7CBFF2B49CC
:101E40005022284609F0F8FF2C460DF14F06B52028
:101E500001E014F8010F0BF0A9FFB442F9D1244BB3
:101E60000FCB2C4685E80F000DF10F06B52001E0E1
:101E700014F8010F0BF09AFFB442F9D1FFF74EFEB0
:101E800060BB1C4811210CF0AFFE1B4809F090FD0F
:101E90001A4B0FCB2F4607C72C460DF10D063B8082
:101EA000B52001E014F8010F0BF080FFA642F9D134
:101EB000134F0FCF2C460FC597E8030045F8040BCE
:101EC00005AE4FF0B50C297001E014F801CF604663
:101ED0000BF06CFFA642F8D115B0F0BD08210948FF
:101EE0000CF082FE044809F063FDD1E7DC7B0100C1
:101EF0002C7C01004C7601004488FF1F3C7C0100D3
:101F0000F47C0100607601002DE9F047A64DA74C56
:101F10002E68A74FDFF89C92ACB040F2EE280CF090
:101F200069FF2378002B00F05F833B78DB0740F1EB
:101F30005B832B68D9F800209B1A0E2B40F2548348
:101F40009D484FF4165109F03BFB4FF496419B48D6
:101F500009F0BEFA4FF47A700AF082FB0821984823
:101F60000CF042FE974809F023FDFFF763FF92490A
:101F7000954801F093FBFFF7A9FE0621934802F074
:101F8000F9FF934B93491A6818A844F2022307F00B
:101F9000CFFB2A9B002B00F085845C200AF09CF884
:101FA0009DF86C3003758C4B199903601A9A8B4B12
:101FB000C16000261CAD044683600261466029466C
:101FC000183007F06BFA864BA3606368A66501338F
:101FD0006360844FDFF81082CDF86080284607F0F8
:101FE0008BFA3E6936B17368013B73600093002B36
:101FF00000F08C837D4B77491A683C6144F20223E0
:1020000018A807F095FB2A9B002B00F045845C2064
:102010000AF062F8199BC3601A9B03619DF86C304B
:1020200003756D4B036004466C4B8360002646606D
:102030002946183007F032FA6368A66501336360F9
:10204000674BA3606A4ECDF86080284607F054FACB
:10205000336933B15A68013A5A600092002A00F09D
:102060001383644B5B491A68346144F2022318A855
:1020700007F05EFB2A9B002B00F01B845C200AF01B
:102080002BF8199BC3601A9B03619DF86C30037594
:10209000514B03600446514B83604FF00009C0F878
:1020A00004902946183007F0F9F96368C4F858908D
:1020B000013363604A4BA36028464F4DCDF86080E2
:1020C00007F01AFA2B6933B15A68013A5A60009244
:1020D000002A00F097820A202C610AF0C1FA3B69BD
:1020E0006BB11A68D468454A944240F03984186D3F
:1020F000002800F04D8342490C2205F055FE394876
:1021000009F056FC33696BB11A68D4683B4A9442B3
:1021100040F01D84186D002800F0318339490B22EE
:1021200005F042FE324809F043FC2B696BB11A6896
:10213000D468324A944240F01C84186D002800F0A4
:10214000458331490B2205F02FFE2B4809F030FC66
:102150003B695BB11A682D4992698A4240F0FD8360
:10216000186D002800F01D8305F072FD33695BB126
:102170001A68264992698A4240F0E683186D002861
:1021800000F01D8305F064FD2B69002B40D01A6818
:102190001E4992698A4240F0E983186D002800F0D8
:1021A000078305F055FD33E08C97FF1F289AFF1F2A
:1021B0004C9AFF1F509AFF1FD887FF1FC487FF1F2D
:1021C0006C7601004488FF1FBC91FF1FA092FF1F87
:1021D0005487FF1FA492FF1F647B0100CC7A01008B
:1021E000147B01004087FF1FF07A01007087FF1FFA
:1021F0005C87FF1F8887FF1F7487FF1FAD090000E2
:10220000787601008876010094760100710900005B
:102210000821BA480CF0E8FCB94809F0C9FBB949F3
:1022200018A809F09DFC18A8FEF718FF18A809F0D7
:10223000D1FCB54918A809F093FC00232222B34928
:1022400018A809F0D7FD18A809F0C4FCAF49B04898
:10225000FFF78CF81121AF480CF0C6FCA84809F034
:10226000A7FBAD4802F0C4FB00210446AA4801F0D8
:1022700069FBA948782101F063FB002C40F0E8825B
:102280000D21A648A64D0CF0AFFC9D4809F090FB2F
:10229000A44918A809F064FC234622229B4918A8E7
:1022A00009F0A8FD18A809F095FC98499848FFF78F
:1022B0005DF89948294601F0A7FD0446002840F042
:1022C0008E821D219848994E994F0CF08DFC2968FB
:1022D0008B4809F065FB8A4809F06AFB954915A807
:1022E00009F03EFC0A22296812A809F0C7FC12A9CD
:1022F00015A809F069FD014618A809F04FFC23460E
:102300002222824918A809F075FD18A809F062FC7C
:1023100012A809F05FFC15A809F05CFC7B497C4819
:10232000FFF724F8844918A809F01AFC2346222252
:10233000764918A809F05EFD18A809F04BFC73490E
:102340007348FFF713F8214609A809F009FC092191
:102350007A487B4C0CF048FC694809F029FBF3688B
:10236000013BBB421BD90BF063FD0028F7D00BF0FB
:1023700073FDC1B2204608F089FF0028F3D002A8FF
:10238000FFF732FC0DF1080CBCE80F00674D0FC5DC
:10239000DCF800302B60F368013BBB42E3D80A2233
:1023A000B1680CA809F096FC0CA90FA809F0F6FB7F
:1023B00064490FA809F010FD04220446316812A8F0
:1023C00009F09EFC12A9204609F0FEFC5D4909F0C7
:1023D00003FD04220446716815A809F091FC15A9B3
:1023E000204609F0F1FC574909F0F6FC0A220446A0
:1023F000F16818A809F058FC18A9204609F0E4FC77
:10240000014609A809F098FC18A809F0E3FB15A8F3
:1024100009F0E0FB12A809F0DDFB0FA809F0DAFBD8
:102420000CA809F0D7FB09A9474809F093FA4648D8
:1024300009F0BEFA454918A809F092FB18A8FEF762
:102440000DFE18A809F0C6FB05244FF4FA700AF037
:1024500007F9012104200AF093F8FA200AF000F9A4
:10246000002104200AF08CF8013CEED1384918A86C
:1024700009F076FB09A915A809F090FB15A918A881
:1024800009F0A2FC01461E4809F064FA1C4809F054
:102490008FFA15A809F09EFB18A809F09BFB2D499F
:1024A00018A809F05DFB23462222184918A809F054
:1024B000A1FC18A809F08EFB14491548FEF756FF39
:1024C0003F2125480CF090FB2346312209A818A98A
:1024D00009F090FC104818A902F0C8F8044600283A
:1024E00000F0ED811D4915A809F03AFB0A222146AA
:1024F00012A809F0C3FB12A932E000BFA0760100C8
:102500004488FF1FAC760100BC7601007492FF1F67
:10251000364A7B41C47601001491FF1F14770100F5
:10252000AC91FF1F24770100547701002C87FF1F17
:102530009F86010074770100807701009877010081
:102540003090FF1F447601007487FF1FA4770100BD
:10255000AC770100B8770100C07701000078010076
:1025600015A809F031FC0146AC4809F0F3F9AB4875
:1025700009F01EFA12A809F02DFB15A809F02AFB94
:10258000A64809F015FAA64915A809F0E9FA15A810
:10259000FEF7A4FC15A809F01DFB2046FEF722FE5D
:1025A000072C00F0F5819F4915A809F0D9FA15A864
:1025B000FEF754FD15A809F00DFB9B4915A809F07D
:1025C000CFFA00232222994915A809F013FC15A877
:1025D00009F000FB95499648FEF7C8FE09A809F0E6
:1025E000F9FA2CB0BDE8F0872B6822789B1B32B13A
:1025F000B3F5FA6F3FF6A4AC0CF0FCFB8FE4434557
:10260000FAD99DE419688B48C96A814240F0B781C4
:10261000986D28B101930DF053FDDDE900239A6513
:102620001A6D002A00F0868103F1180006F064FF9D
:10263000D5F81090B9F1000F3FF44DADD9F8003046
:102640007D4A5B68934240F0C081D9F858007B4BCB
:10265000C9F8003020B10DF033FD0023C9F858301F
:10266000D9F8503009F1180A002B00F09981504632
:1026700006F042FFC9F80880504606F03DFF484684
:102680005C2109F02BFD26E519686A48C96A814278
:1026900040F07B81986D28B101930DF011FDDDE9CB
:1026A00000239A651A6D002A00F03F8103F118009B
:1026B00006F022FFD6F81090B9F1000F3FF4D1AC2C
:1026C000D9F800305C4A5B68934240F08281D9F8C7
:1026D00058005A4BC9F8003020B10DF0F1FC00232E
:1026E000C9F85830D9F8503009F1180A002B00F019
:1026F0005D81504606F000FFC9F80880504606F09C
:10270000FBFE48465C2109F0E9FCAAE4326849492D
:10271000D26A8A4240F03681B06D18B10DF0D0FC1B
:10272000009BB365336D002B00F0098106F11800A2
:1027300006F0E2FE3E69002E3FF45CAC33683E4A90
:102740005B68934240F03D81B06D3C4B336018B103
:102750000DF0B6FC0023B365336D06F11809002BAC
:1027600000F02A81484606F0C7FEC6F808804846B1
:1027700006F0C2FE30465C2109F0B0FC3AE4586D28
:1027800000283FF4CFAC2E490B2203F09BFCC9E498
:10279000586D00283FF4B3AC2A490C2203F092FC98
:1027A000ADE4586D00283FF4E1AC03F01FFADDE41E
:1027B000586D00283FF42CAD03F018FA28E5586D49
:1027C00000283FF4E1AC03F011FADDE4586D002875
:1027D0003FF4BBAC1C490B2203F074FCB5E41C2194
:1027E0001A480CF001FA21460C4809F0D9F80B48B8
:1027F00009F0DEF8154918A809F0B2F918A8FEF793
:102800006DFB18A809F0E6F92046FEF7EBFC4FF047
:10281000FF332B602CB0BDE8F08700BF4488FF1F5A
:10282000007801001C7801005C7801007492FF1FA1
:10283000364A7B4175040000710B0000647B010087
:1028400088760100787601009476010034770100E3
:10285000142162480CF0C8F92146614809F0A0F83B
:102860005F4809F0A5F85D4918A809F079F918A89A
:10287000FEF734FB18A809F0ADF92046FEF7B2FCCC
:10288000052CC7D1202157480CF0AEF954482CB084
:10289000BDE8F04709F08CB82B9C002C7FF4B7AB57
:1028A000FFF7D0BB2B9C002C7FF477AB1CADFFF760
:1028B00090BB2B9C002C7FF4E1ABFFF7FDBB4A499A
:1028C00015A809F04DF918A912A809F049F912A99B
:1028D00015A809F079FA0146414809F03BF840484B
:1028E00009F066F812A809F075F915A809F072F94F
:1028F0003D4912A809F034F918A90FA809F030F9D8
:102900000FA912A809F060FA014615A809F046F9C6
:1029100015A8FEF7A3FB15A809F05CF90FA809F0AC
:1029200059F912A809F056F947E65A6D002A7FF4C2
:10293000BDAEBFE65A6D002A7FF476AE78E6736DC1
:10294000002B7FF4F3AEF5E6184690471CE42749C8
:1029500018460B22A047FFF7E5BB1846904705E451
:10296000234918460C22A047FFF7C9BB18469047D9
:102970004EE4204918460B22A047FFF7E6BB184655
:10298000884755E630469047D4E61846884791E692
:10299000282119480CF028F9114809F009F802E635
:1029A000D9F85430002B7FF462AE63E6D9F8543086
:1029B000002B7FF49EAE9FE6736D002B7FF4D2AEAA
:1029C000D3E630469847FFF715BB48469847FFF7D0
:1029D00082BB48469847FFF744BB00BFD87601004A
:1029E0004488FF1FF07601004878010088760100D6
:1029F00078760100947601001C78010030B5AB496F
:102A0000AB4889B00EF0D0FE18B3AA4BAA480022FA
:102A100010211A600CF0E8F8A84808F0C9FFA64990
:102A200004A809F09DF804A8FEF718FB04A809F013
:102A3000D1F8A34BA34801221A700FF021FAA24942
:102A40000246A048C2F1630209B0BDE830400EF072
:102A500069BC9E4996480EF0A7FE0446E0B1954B2E
:102A60009B482A220D211A600CF0BEF8934808F00A
:102A70009FFF974904A809F073F804A8FEF7EEFA3F
:102A800004A809F0A7F88E4B8E4801221A700FF0A7
:102A9000F7F990490246D4E78F4985480EF084FE45
:102AA000E8B1844B1B682A2B44D08C4904A809F058
:102AB00057F804A8FEF7D2FA04A809F08BF81421FD
:102AC00086480CF091F87D4808F072FF7C4B7D48F9
:102AD00001221A700FF0D4F981490246B1E7814909
:102AE00073480EF061FE0446002848D07E497048C5
:102AF0000EF05AFE002871D00D217C480CF074F8BD
:102B00006E4808F055FF794904A809F029F804A88F
:102B1000FEF7A4FA04A809F05DF87549684B694806
:102B200001224EF660240C601A700FF0A9F9714969
:102B3000024686E7042170480CF056F85F4808F01A
:102B400037FF6E4904A809F00BF804A8FEF786FACF
:102B500004A809F03FF8684904A809F001F82346E1
:102B60006749222204A809F045F904A809F032F8BF
:102B70006349644809B0BDE83040FEF7F7BB6249DD
:102B80004B480EF011FE00286ED009215E480CF073
:102B90002BF84A4808F00CFF5B4904A808F0E0FF56
:102BA00004A8FEF75BFA04A809F014F8564904A833
:102BB00008F0D6FF23462222514904A809F01AF949
:102BC00004A809F007F84E495048FEF7CFFB0BF078
:102BD0002BF809B0BDE83040FFF72CB94C49344818
:102BE0000EF0E2FDE0B10D214A484B4C0BF0FCFF2A
:102BF000324808F0DDFE474904A808F0B1FF04A8F8
:102C0000FEF72CFA04A808F0E5FF39492C4B2D48B3
:102C10000C6001221A700FF033F94049024610E7A8
:102C20003F4923480EF0C0FD002800F087800D21A9
:102C30003C483D4C0BF0D8FF204808F0B9FE39491C
:102C400004A808F08DFF04A8FEF708FA04A808F00D
:102C5000C1FF27491A4B1B480C6001221A700FF064
:102C60000FF932490246ECE6314911480EF09CFD5D
:102C70000446002800F086800C212E480BF0B4FF9B
:102C80000E4808F095FE2C4904A808F069FF04A836
:102C9000FEF7E4F904A808F09DFF094B094801225A
:102CA0001A700FF0EDF822490246CAE66C7801006E
:102CB0007891FF1F2487FF1F747801004488FF1F4D
:102CC000C98FFF1FCC8FFF1F88780100907801000B
:102CD00094780100D8780100A4780100BC78010044
:102CE000D4780100E0780100E8780100F078010074
:102CF0005887FF1F00790100AC780100B47801000B
:102D00007492FF1F3A4A7B4158790100364A7B4151
:102D1000047901000C790100E09304001C790100A2
:102D20002079010028790100A0BB0D00387901004D
:102D3000847901006479010074790100A749A848E9
:102D40000EF032FD002800F088800F21A548A64C27
:102D50000BF04AFFA54808F02BFEA54904A808F08F
:102D6000FFFE04A8FEF77AF904A808F033FFA14992
:102D7000A14BA2480C6001221A700FF081F8A04903
:102D800002465EE69F4996480EF00EFD0546002875
:102D900065D009219C480BF027FF944808F008FEF5
:102DA000994904A808F0DCFE04A8FEF757F904A826
:102DB00008F010FF944904A808F0D2FE9349234676
:102DC000222204A809F016F804A808F003FF8F498E
:102DD0008F48CFE68F4982480EF0E6FC002800F0CD
:102DE00098808C498148FDF7E7FE7D4987480EF0C1
:102DF00013FA894B93E803000A2204908DF814100B
:102E00000DF1150000210EF0B5F980498048FEF75C
:102E1000ADFA00286CD17D497D48FEF7A7FA00285D
:102E200066D17E4901A808F09BFE01A8FEF716F9BD
:102E300001A808F0CFFE7A4B93E8030005908DF8C7
:102E400018106D4B6D4801221A700FF019F804A983
:102E5000C0F1630269480EF065FA09B030BD7149EE
:102E60005F480EF0A1FCB0B10A216F480BF0BCFE28
:102E70005E4808F09DFD6C4904A808F071FE04A8A6
:102E8000FEF7ECF804A808F0A5FE674904A808F0CE
:102E900067FE2B4664E6654951480EF085FC002824
:102EA00098D063495148FDF787FE4D4957480EF0C9
:102EB000B3F956495F48FEF759FAB8B953495D4826
:102EC000FEF754FA90B95C4904A808F049FE04A83A
:102ED000FEF7C4F804A808F07DFE474B47480122DE
:102EE0001A700EF0CDFF55490246AAE55049EBE7AE
:102EF000484901A808F034FE01A8FEF7AFF801A880
:102F000008F068FE4E4B93E8030005908DF818100A
:102F100097E74C4932480EF047FC0546002800F080
:102F2000998004AC47493148FDF746FE45492046A3
:102F300008F016FE2046FEF791F8204608F04AFEFB
:102F4000274932480EF068F93F4B93E8030000230D
:102F50000490ADF814103D482C49ADF81630ADF88A
:102F60001830ADF81A30ADF81C308DF81E30FEF771
:102F7000FDF9002840F0CB8024493448FEF7F6F9EB
:102F8000002840F0C48021493048FEF7EFF90028BE
:102F900040F0BD801D492D48FEF7E8F9002840F0BB
:102FA000B6802B4901A808F0DBFD01A8FEF756F812
:102FB00001A808F00FFE1A4905220DF1150008F0CE
:102FC0003BFF0D4B0D4801221A700EF059FF2146B0
:102FD000C0F1630209480EF0A5F93EE73C79010013
:102FE0007891FF1F4479010080EE36004488FF1F6E
:102FF000287901005887FF1FC98FFF1FCC8FFF1F43
:1030000054790100807901008C7901007492FF1FCE
:10301000364A7B41E47901000C7D0100EC79010026
:10302000F879010098790100A4790100B0790100D4
:10303000BC7901003A4A7B41C8790100D879010086
:10304000047A0100007A01001C7D0100AC919041DE
:103050000C7A01003F4940480EF0A6FB00283FF4DF
:10306000FCAE04AC3B493D48FDF7A6FD394920467E
:1030700008F076FD2046FDF7F1FF204608F0AAFD96
:10308000354937480EF0C8F8364B93E8030008225C
:103090000B0C0490ADF814100DF1170029468DF8B3
:1030A00016300EF067F82E492F48FEF75FF900281A
:1030B0003ED12B492C48FEF759F9002838D1284930
:1030C0002948FEF753F9002832D125492648FEF752
:1030D0004DF968BB254901A808F042FD01A8FDF79C
:1030E000BDFF01A808F076FD214905220DF116006B
:1030F00008F0A2FE1F4B204801221A700EF0C0FEFD
:103100002146C0F163021C480EF00CF9A5E61B49EC
:1031100001A808F025FD01A8FDF7A0FF01A808F00F
:1031200059FD174905220DF1150008F085FE48E705
:10313000084901A808F014FD01A8FDF78FFF01A8B8
:1031400008F048FD0E4905220DF1160008F074FE46
:10315000D0E700BF1C7A01007891FF1F4488FF1F51
:103160007492FF1F2C7D0100BCDD5642287A0100BD
:10317000F8790100C98FFF1FCC8FFF1F007A010073
:10318000047A01002DE9F04FA54FB3B0FEF768FDBA
:10319000FEF774FB3B68A34A0B930B9B12689B1AC8
:1031A000B3F57A7F3CD83B689F4C0893089B216815
:1031B00043F698225B1A934212D89C4B1B68002B53
:1031C0000BDD3B68DFF868A29A4A0A930A9BDAF89B
:1031D000001012685B1A934225D833B0BDE8F08F17
:1031E000002395480F930FA900F00EFE0546002816
:1031F00000F0F48009280CD0904912A808F0B0FC27
:1032000012A8FDF76BFE12A808F0E4FC2846FDF7B3
:10321000E9FF864B1B683A680992099A2260CEE75B
:10322000FDF724FDBFE7864D31230793EB68AC68BB
:10323000049368680CF086F8CDE9020128680CF068
:1032400081F823467F4C804ACDE90001802112A8F5
:103250000DF0F2FB23780FAE002B40F00B8112A98A
:10326000304608F07DFC3046FDF738FE304608F069
:10327000B1FC7649DFF8D881304608F071FC304661
:10328000FDF7ECFE304608F0A5FC0C216F480BF072
:10329000ABFC704808F08CFBD8F8104084B112A841
:1032A0000EF0EEFD23686C49DB688B42024640F06D
:1032B0002E81206D002800F0078112A904F074FD12
:1032C000634808F075FBD8F810305BB11A686349A1
:1032D00092698A4240F01881186D002800F0FC8045
:1032E00004F0B6FC07AB5E4A5348DFF8788112A9B8
:1032F00001F0D0F95C49C4B2304608F031FC3046E8
:10330000FDF7ECFD304608F065FC2046FDF76AFF4E
:103310005649304608F024FC21460CA808F096FCDB
:103320000CA9304608F050FD01464A4808F012FB4F
:10333000484808F03DFB0CA808F04CFC304608F06B
:1033400049FC0A22A968304608F0C4FC31464046D0
:1033500008F000FB304608F03DFCD8F810306BB1A7
:103360001A68D4683C4A944240F0C980186D00281D
:1033700000F0B9803E49012204F016FDFFF73EFB44
:10338000079B002B33D00024354DDFF8CCB0A1468D
:103390000BE0314604F008FD012005F8019C09F01E
:1033A0005FF9079B0134A34221D9D8F8101015F812
:1033B000013B8DF83C300029EED00B68DB685B45A3
:1033C0004FF001020ED1086D0028E2D1486D0122B4
:1033D0000028E1D0314602F075FEDDE7134A0F9B6D
:1033E000136018E70846012231469847D4E71D4884
:1033F00008F0DEFAD8F810304BB11A681749926914
:103400008A4279D1186D002858D004F021FC3B681D
:103410000F930F9BCAF8003033B0BDE8F08F00BFA8
:103420008C97FF1F0891FF1F1091FF1FAC91FF1F8A
:103430000C91FF1F5887FF1F1491FF1F387A01005E
:103440002C87FF1FC98FFF1F4C7A0100707A010083
:103450007487FF1F4488FF1FAD0900007109000039
:103460007891FF1F5C87FF1F807A0100B07A01000E
:10347000C07A01002849304608F072FB3046FDF75B
:103480002DFD304608F0A6FB2449304608F068FBC5
:103490003046FDF7E3FD304608F09CFB12A80EF025
:1034A000EFFC1E49C0F17F0212A80DF03BFF002186
:1034B00064221A4821700DF05DFED0E6586D002898
:1034C000A5D002F093FBA2E7606D00283FF4F8AEB0
:1034D00012A902F0F7FDF3E6586D00283FF402AFA1
:1034E00002F084FBFEE6586D00283FF447AF0C491C
:1034F000012202F0E7FD41E71846904787E70849B7
:1035000018460122A04739E718469047EAE62046C8
:1035100012A99847D4E600BF607A0100CC8FFF1F44
:10352000C07A01000B2070470B2920D8DFE801F09A
:10353000080A0C0E10121416181B1D06C07E7047C8
:10354000C07C7047807C7047407C7047007C70472F
:10355000C07D7047807D7047407D7047007D70471B
:10356000008B000A7047007E7047807E704783683A
:103570000B4413F80C0C7047007B0C30C0B2704742
:1035800010B50168074A4B68847A934204D1013C24
:103590000B20201AC0B210BD9847013C201AC0B2BF
:1035A00010BD00BF25350000704700BF007970478F
:1035B000407A7047807A003818BF0120704700BFFA
:1035C000807A7047704700BF03681879704700BF62
:1035D00003680B6003790B71437A4B72C379CB712B
:1035E000837A8B72037A0B7243794B7183798B7177
:1035F000704700BF10B4034C0460002110BC01618F
:1036000041617047547D01001030704702680A60C4
:1036100003790B71437A4B72C379CB71837A8B72C6
:10362000037A0B7243794B7183798B71537892F8DB
:1036300000C0D0781B0403EB0C630344907803EBC9
:103640000023CB60537992F804C0D07992791B049F
:1036500003EB0C63034403EB02230B61704700BFD1
:1036600010B5D0E9002453689847204410BD00BF2E
:10367000704700BF80797047002210B400F1110438
:1036800005490460828110BCC27302744272827266
:10369000C271C0F880107047C487FF1FC0F8801047
:1036A000704700BF704700BFF8B5437A0446002B4F
:1036B0003AD1837A002B37D1012704260325D4F889
:1036C000800003681B699847002852D0D4F8800016
:1036D00003685B699847637BC0B2A07353B37E28CD
:1036E00045D07D2831D0227B2AB1A27B002182F0F7
:1036F0002002A2732173022B03D9E27BA17B0A442F
:10370000E273032B36D8DFE803F01B0A0602A37B23
:1037100023716673D3E7A37BA3716573CFE7A27BA5
:10372000627102236373CAE70023A381636023816C
:10373000A372C1E7227B1AB180F02000A07323732B
:10374000A37B7E2BBBD16773B9E7D4F880000368F5
:103750001B69984748B1D4F8800003685B699847B3
:1037600080F02000637BA073BDE72773A7E70323E6
:10377000A372F8BD6E2B0CD8A279033293420BD002
:1037800022681A44A37B02F8043C637B0133637311
:1037900095E70223A372F8BDE27BFF2A07D001213F
:1037A0000022043BA17223726273E273F8BDA17B15
:1037B000E171012262720021F2E700BFF0B50D1E37
:1037C00083B012DB0A4E33680093009F044605E085
:1037D000FFF76AFF607A48B9A37A33B93368019377
:1037E000019BDB1BAB422046F2DB002003B0F0BDA7
:1037F0008C97FF1FC0E90012704700BF40687047F8
:1038000084464FF4887010B48CF80C30ACF8040087
:10381000634603C9064CCCF8082043F8104B4FF61A
:10382000FE7283E80300CCF81820604610BC704795
:10383000447D010070B505460C463AB1A1F17D0307
:10384000012B0BD901F0FD03112B07D0D5F8800017
:10385000036821461B68BDE870401847D5F8800012
:1038600003687D211B689847D5F88000036884F0C1
:1038700020011B68BDE87040184700BF2DE9F041EA
:103880008046D0F8800003680C461B687E2198476C
:10389000236820465B689847236805465B68204696
:1038A0009847A91C01220546C1F307214046FFF7AE
:1038B000C1FFA91C0122C9B24046FFF7BBFF217915
:1038C00001224046FFF7B6FF617901224046FFF72B
:1038D000B1FF277963791F440025FFB20FE0236809
:1038E0001B689847012201464046FFF7A3FF236863
:1038F00031461B682046984738440135C7B22368D3
:1039000020465B6898470346EEB2AB4231462046FC
:10391000E5DCF94340460122C9B2FFF78BFFD8F836
:1039200080000368BDE8F041DB681847034B0021C5
:103930004FF6FF72C3E90012704700BF9892FF1F55
:10394000C160704780F82010704700BF2DE9F04338
:10395000144D154F2B6883B081460093009E4FF4A1
:103960007A7303FB01F44FF001082B680193019B6C
:103970009B1BA34212D2D9F81C30D8B2013304D019
:1039800008F024FE08B989F82280002FEDD0FEF758
:1039900067F90028E9D103B0BDE8F083012003B046
:1039A000BDE8F0838C97FF1F611C000030B5044612
:1039B000806981F001032375431C83B02FD00D462D
:1039C000C0B2012108F010FEBDB9194B606A1B6836
:1039D0000193019B1A1AB2F5FA6F22D3154D5021AB
:1039E0002046AFF3008015F8011B0029F8D1207E96
:1039F00003B0BDE8304008F0C3BD0F4D5021204654
:103A0000AFF3008015F8011B0029F8D1207E0121B9
:103A100008F0B6FD064B1B680093009B636203B081
:103A200030BDC3F5FA63184408F01AFED6E700BFAC
:103A30008C97FF1F757D01005D7D01002DE9F04130
:103A400005460E461F46BAB9344614F8011B31B17B
:103A50002846AFF3008014F8011B0029F8D1AFB954
:103A60002C6830460EF00CFA236802463146204698
:103A70005B68BDE8F0411847094C3E212846AFF38A
:103A8000008014F8011B0029F8D1DDE7054C0D2159
:103A90002846AFF3008014F8011B0029F8D1DFE7B6
:103AA0008D7D0100D17E010070B5154D0E46044696
:103AB0003E212046AFF3008015F8011B0029F8D104
:103AC0003178354631B12046AFF3008015F8011F3B
:103AD0000029F8D10B4D0D212046AFF3008015F8D9
:103AE000011B0029F8D1246830460EF0C9F923687B
:103AF0000246314620465B68BDE87040184700BF6B
:103B00008D7D0100D17E01002DE9F043284E294F23
:103B100083B004464FF00108206803681B6998478A
:103B2000002824DD236B013321D1206803685B6901
:103B30009847C5B229462046AFF30080A26A1378A1
:103B40000BB1AB4201D02563E6E7531CA362537867
:103B500083B9194D84F8228053212046AFF30080A9
:103B600015F8011B0029F8D1E762A762D4E703B07A
:103B7000BDE8F08333680093DDF8009006E0336819
:103B80000193019BA3EB0903092B05D82068036867
:103B90001B6998470028F2D0206803681B69984782
:103BA0000028B9D1A36A2563013BA362B4E700BF33
:103BB0008C97FF1F6C800100957D01002DE9F04F6F
:103BC00085B06C4C0E9E0092894683461F46572155
:103BD0005846AFF3008014F8011B0029F8D1317862
:103BE000344631B15846AFF3008014F8011F002964
:103BF000F8D1614C0D215846AFF3008014F8011B39
:103C00000029F8D1B9F1000F03D0009A48460DF011
:103C1000B1FAB7FA87F56D09584C6D003C2158464A
:103C2000AFF3008014F8011B0029F8D1544CDBF8E5
:103C3000080022680292029B22680392039A019371
:103C40004FF47A74D21A04FB00F0904240F28D8057
:103C50000C468846DBF81C00411C07D0C0B208F0B7
:103C6000B5FC18B94FF001038BF82230454B1BB15E
:103C7000FDF7F6FF002878D04FF0FF3A5846FFF7DF
:103C800043FFDBF82C20DBF828309B1ADBF83020D0
:103C9000B2F1FF3F18BF0133002B57DD5846FFF745
:103CA00033FFDBF82820DBF82C309A422DD8DBF8E4
:103CB00030305A1C1ABFCBF830A0DBB2FF2377B1EB
:103CC0007DB3012D14D1B9F1000F08D00D2B0FD009
:103CD000009A012A0CDD013A09F8013B0092325D9D
:103CE0009A420AD03478E41AB4FA84F46409C5E735
:103CF000325D9A424FF00205F4D10134335D002B5E
:103D0000BCD1012005B0BDE8F08F591CCBF82C10B8
:103D10008A421B78D3D11C4ACBF82C20CBF8282020
:103D2000CDE717F808209A4208D097F80080A8EB52
:103D30000308B8FA88F84FEA5818D0E708F10108E4
:103D400017F80850B5FA85F56D09C8E70C4B1A68E5
:103D500003920399019BDBF808204FF47A70C91A8B
:103D600000FB02F29142FFF475AF002005B0BDE800
:103D7000F08F00BFAD7D0100D17E0100C57D010047
:103D80008C97FF1F611C00006C80010030B501237F
:103D900085B01A460D4618490446FFF74FFE174AEC
:103DA0000092174B022203A92046FFF707FF70B1CC
:103DB0009DF80C30303B092B02D9032005B030BDF3
:103DC00003A80CF057F92860002005B030BDE06969
:103DD000431C08D10B4B002BEFD0FDF741FFC0F186
:103DE000040005B030BDC0B208F0F0FB0028F1D1EE
:103DF000012384F82230EDE7107E0100E07D010010
:103E0000187E0100611C0000437D73B9037D01220F
:103E100010B50446427523B9FFF7B8FF0023637558
:103E200010BD00230A20637510BD0920704700BF34
:103E300030B5012389B01A460D4617490446FFF7ED
:103E4000FDFD164A0092164B182202A92046FFF7E4
:103E5000B5FE50B19DF808000CF004F9003818BF09
:103E600001202870002009B030BDE069431C07D153
:103E70000C4B73B1FDF7F4FEC0F1040009B030BD86
:103E8000C0B208F0A3FB0028F2D1012384F822304D
:103E9000EEE7032009B030BDC87D0100E07D0100E0
:103EA000D47D0100611C00002DE9F0411D46012375
:103EB00090B0884617462B491A460446FFF7BEFDC8
:103EC000294B00932022294B0DEB02012046FFF7DE
:103ED00075FE70B3169B264E05930124179B06931F
:103EE000012C189B0495CDE90287079302AD31465A
:103EF0004FF0000010D00DF0BBFA30B30CF0BEF85C
:103F00002B68062C188010D00134012C05F1040513
:103F100031464FF00000EED108A80DF0A9FAA0B18B
:103F20000CF0ACF82B681880EEE7002010B0BDE86C
:103F3000F081E069431C0CD10E4B33B1FDF790FECC
:103F4000C0F1040010B0BDE8F081032010B0BDE85E
:103F5000F081C0B208F03AFB0028EDD1012384F8CB
:103F60002230E9E7207E0100E07D01002C7E010087
:103F7000387E0100611C00002DE9F04F9C4D0123AB
:103F80008DB08846924629461A460446FFF756FDEC
:103F9000002300951A4619462046FFF70FFE0290AF
:103FA000002800F00981934DDFF84C922B680593AF
:103FB000059E4FF47A774FF0010B2B680693069A13
:103FC000A368921B07FB03F39A4215D2E369D8B2A8
:103FD000013304D008F0FAFA08B984F822B0B9F134
:103FE000000F03D0FDF73CFE00287BD0206803685B
:103FF0001B6998470128E0DD206803681B69984722
:1040000001286BDD20687D4F03685B699847814616
:10401000206803685B69984700EB09291FFA89F952
:104020005B212046AFF3008017F8011B0029F8D16F
:1040300073494A4609A80CF0EBFE9DF8241039B1EB
:1040400009AF2046AFF3008017F8011F0029F8D10F
:1040500020465D21AFF3008000274346DFF898B18A
:104060000397A0461C464F4543D2D8F81C00431C7A
:1040700007D0C0B208F0AAFA18B94FF0010388F8C7
:104080002230BBF1000F02D0FDF7EAFD50B3D8F8A3
:10409000000003681B699847A0B1D8F800000368C6
:1040A00001375B699847BFB264B1BAF1000F09D01C
:1040B000DAF80030D3B104F8010BDAF80030013B34
:1040C000CAF800302B6807930799D8F808304FF4E6
:1040D0007A70891B00FB03F39942C4D307200DB00B
:1040E000BDE8F08F04200DB0BDE8F08F029B039374
:1040F000E8E74446DFF800814FF47A774FF0010B90
:104100002B680893089AA368921B07FB03F39A4253
:1041100015D2E369D8B2013304D008F057FA08B9D0
:1041200084F822B0B8F1000F03D0FDF799FD002804
:10413000D8D0206803681B6998470128E0DD206813
:1041400003681B6998470128C8DD20682D4D036866
:104150005B6998470646206803685B69984700EBEF
:104160000626B6B25B212046AFF3008015F8011B8E
:104170000029F8D12249324609A80CF049FE9DF8E1
:10418000241039B109AD2046AFF3008015F8011FA6
:104190000029F8D15D212046AFF30080BAF1000F6D
:1041A00001D0CAF80090184A009200231A46194616
:1041B0002046FFF703FDC0B9E069421C08D10E4B51
:1041C0007BB1FDF74DFDC0F104000DB0BDE8F08FEF
:1041D000C0B208F0FBF90028F1D1012384F82230A5
:1041E000EDE703200DB0BDE8F08F039BD8007AE720
:1041F000547E01008C97FF1F611C00003D7E010072
:10420000907D01004D7E0100E07D01002DE9F04F21
:10421000BA4D0E468FB0044690461F46692120468F
:10422000AFF3008015F8011B0029F8D1237D002B86
:1042300040F05D81B8F1000F00F0A580002F00F084
:10424000A280B7F5AA7F00F24C810B460122AC494F
:104250002046FFF7F3FBAB493A460BA80CF0D8FD1C
:104260009DF82C1039B10BAD2046AFF3008015F846
:10427000011F0029F8D13946206807F091FBA249B7
:10428000012300222046FFF7D9FBA04B0093002317
:104290001A4619462046FFF791FC002863D07B1E82
:1042A00008F1FF3500269844206815F8011F0368BF
:1042B0001B6898472B78454533449EB2F4D15B2167
:1042C0002046AFF300808F493A460BA80CF0A0FDC2
:1042D0009DF82C100BAD31B12046AFF3008015F8DE
:1042E000011F0029F8D18A4D20212046AFF300801C
:1042F00015F8011B0029F8D1864D43212046AFF364
:10430000008015F8011B0029F8D17E4932460BA820
:104310000CF07EFD9DF82C1039B10BAD2046AFF3AB
:10432000008015F8011F0029F8D17B4F0D25294683
:104330002046AFF3008017F8015B002DF7D120680D
:104340000368310A1B68984720680368F1B21B684C
:104350009847724B00932B461A4619462046FFF7A2
:104360002DFC002842D1E069421C40F0E3806C4BF8
:10437000002B00F0E980FDF773FCC0F1040A504601
:104380000FB0BDE8F08F002E00F0E4800D21304624
:104390000CF062FF08B10023037030460DF070FD91
:1043A000B0F5AA7F00F29D8001231A465D492046A0
:1043B000FFF744FB554A009200231A46194620464F
:1043C000FFF7FCFB0028CED031462046FFF76CFB00
:1043D0004D492046FFF768FB504A009200231A46D9
:1043E00019462046FFF7EAFB0028BCD04E4EE36892
:1043F00032680992099F32680A920A9A4FF47A71D8
:10440000D21B01FB03F39A4280F0D880DFF8F490CE
:104410004FF00108002594F820308DF81780002B0C
:1044200040F0A2800DF1220108AA0DF11E030291B5
:10443000019200930DF11A0207AB06A92046ADF8D0
:104440001850ADF81A50ADF81C50ADF81E50ADF82C
:104450002050ADF82250FFF727FD8246002842D1B8
:10446000DFF8C8B053212046AFF300801BF8011BD2
:104470000029F8D14946BDF818200BA80CF0C8FC5B
:104480009DF82C1041B10DF12C0B2046AFF30080AC
:104490001BF8011F0029F8D1DFF87CB00D21204660
:1044A000AFF300801BF8011B0029F8D1BDF81830CC
:1044B000042B40F2A280102B00F28C804FF4A83223
:1044C00022FA03F3DB0740F18580194D5321204682
:1044D000AFF3008015F8011B0029F8D14FF0060A50
:1044E00001E04FF00D0A50460FB0BDE8F08F4FF0DD
:1044F0000A0A50460FB0BDE8F08F00BF617E010090
:10450000287F0100907D01004C800100347F010074
:10451000797E0100817E0100D17E01003C7F010097
:10452000611C0000547F01008C97FF1F8D7E0100ED
:10453000C57E0100C0B208F049F800287FF417AF2B
:10454000012384F8223012E74FF0030A50460FB0DF
:10455000BDE8F08F01231A463D492046FFF76EFA69
:104560003C4B009333463AE70DF1170120468DF896
:104570001750FFF75DFC82460028B4D19DF8173034
:10458000002B7FF44FAFDFF8D0A057212046AFF3C8
:1045900000801AF8011B0029F8D10A212046FFF7F4
:1045A000D5F938B333680A930A9AE3684FF47A71FD
:1045B000D21B01FB03F39A42FFF42DAF274D532189
:1045C0002046AFF3008015F8011B0029F8D14FF009
:1045D000070A88E7DFF888A057212046AFF300805C
:1045E0001AF8011B0029F8D161682046FFF7AEF9DF
:1045F0000028D7D14FF0040A75E71A4D5321204601
:10460000AFF3008015F8011B0029F8D1BDF81C306C
:10461000BDF822202261012B11D1189B7BB1124DD4
:1046200049212046AFF3008015F8011B0029F8D17D
:10463000DDE918122046FFF79FFC824653E7199BDD
:10464000002B3FF450AF199A002313604BE700BFD3
:10465000487F0100E07D0100F57E0100157F01002B
:10466000D57E01009D7E0100B17E010030B5457D03
:1046700083B05DB9012343752A46019500952B4609
:104680000446FFF7C3FD657503B030BD092003B0D4
:1046900030BD00BF30B5457D83B05DB9CDE90023A5
:1046A00001222B4642752A460446FFF7AFFD657589
:1046B00003B030BD092003B030BD00BF2DE9F04F7D
:1046C000044680690023411C8DB0237500F00F81E2
:1046D0000121C0B2A44D07F087FF50212046AFF35F
:1046E000008015F8011B0029F8D1A04D207E012182
:1046F00007F046FF2B680693069B63622B680393C3
:10470000039E9B4F4FF001082B680293029B9B1B5B
:10471000B3F5FA7F12D2E369D8B2013304D007F0BF
:1047200055FF08B984F82280002FEDD0FDF798FAE4
:104730000028E9D104200DB0BDE8F08F2B68059367
:10474000DDF814A0DFF82C92DFF82C828B4F2E6856
:104750000496DDF810C0864EACEB0A0C0123CC4564
:104760001A464146204600F2DB80FFF767F9002336
:104770001A46194600972046FFF720FAE369834658
:10478000D8B2013305D007F021FF10B9012384F816
:1047900022301EB1FDF764FA0028CBD0BBF1000F28
:1047A000D5D0774A07CA09AB83E807001D460DF14B
:1047B000300801231A4655F8041B2046FFF73EF93E
:1047C000002300971A4619462046FFF7F7F90028FC
:1047D00000F08F80A845ECD16A4D52212046AFF3FE
:1047E000008015F8011B0029F8D194F82130002B26
:1047F00000F08C80DFF89081202529462046AFF319
:10480000008018F8015B002DF7D194F821105F4A61
:104810005F4B002914BF1146194601231A46204652
:10482000FFF70CF900972B462A4629462046FFF74A
:10483000C5F900285DD001231A4656492046FFF7E6
:10484000FDF8554B0097082207A92046FFF7B6F957
:10485000002800F0B180514D46212046AFF3008082
:1048600015F8011B0029F8D19DF81C1007AD31B1D6
:104870002046AFF3008015F8011F0029F8D1484DFC
:104880000D212046AFF3008015F8011B0029F8D157
:104890009DF81C30542B54D0424D4D212046AFF38F
:1048A000008015F8011B0029F8D194F8203043B995
:1048B0003D4D20212046AFF3008015F8011B002953
:1048C000F8D13A4D20212046AFF3008015F8011BA6
:1048D0000029F8D1364D49212046AFF3008015F864
:1048E000011B0029F8D108460DB0BDE8F08F1F4D1F
:1048F00004E7E069421C03D0C0B207F067FEE0B1F4
:10490000CEB1FDF7ADF9C0F1040014E7264D20212A
:104910002046AFF3008015F8011B0029F8D169E7A4
:10492000244D4E212046AFF3008015F8011B0029CD
:10493000F8D10520FFE60320FDE6012384F82230AC
:10494000DEE79DF81D30412BA6D10A220DF11E0095
:104950000CF002FA43F2C82398428CBF00230123D3
:1049600084F8203098E700BF5D7D01008C97FF1F21
:10497000611C00007FA903002C800100E07D010084
:1049800060800100797F0100917F01009C7F010020
:10499000AC7F0100E87D0100F47D0100D57F0100BE
:1049A000D17E0100ED7F0100897F010001800100BF
:1049B00011800100617F0100E069431C06D0C0B294
:1049C00007F004FE10B9012384F822300EB1FDF780
:1049D00047F9064D55212046AFF3008015F8011B1D
:1049E0000029F8D1012384F8203055E7BD7F01006C
:1049F00030B5437D83B013BB0123134D437504468B
:104A000043212046AFF3008015F8011B0029F8D19F
:104A1000237D43B96175012520460021FEF7C6FFBD
:104A2000284603B030BD20460191FFF747FE0199AB
:104A3000617505460028EFD1284603B030BD092531
:104A4000284603B030BD00BF31800100704700BF71
:104A500030B583B005460C4607F02EFD1C4B98423E
:104A600004D800232B80238003B030BD694606F0B4
:104A7000C1FF9DF806309DF805109DF80420503BBD
:104A80009BB27F2B05D80131C9B20C2901D81F2A4E
:104A900011D900239DF802202B80172A9DF80130A0
:104AA0009DF8001003D83B2B01D83B2909D90023DE
:104AB000238003B030BD42EA411242EA43239BB255
:104AC000E8E75B0143EAC22343EA51039BB2EFE705
:104AD000FFA5CE12F0B5012B95B0054638D0022BBC
:104AE00040F202200CBF034600230431684604F064
:104AF0001FFE129B002B34D05C2007F0EDFA1F4BF9
:104B00000026C0E90036019BC3601D4B8360029BF9
:104B1000036104AF9DF80C30037504463946183024
:104B200004F0BCFC174BA3604FF47A73AB6063686E
:104B3000154AA66501336E602A602E732C6163608E
:104B4000124B0093384604F0D7FC284615B0F0BD50
:104B500044F202230431684604F0EAFD129B002B64
:104B6000CAD1139B002BC7D1074A6B604FF47A71EF
:104B7000A9602B732A602B6104AFE1E7647B01001D
:104B8000CC7A0100147B0100387B0100F07A01002F
:104B900010B5D0F884448EB00A4644B100232146B3
:104BA0006846009302F0D4FC80B90EB010BDD0F876
:104BB000881441B1234668460C9400F08FFE50B92A
:104BC00000200EB010BD08460EB010BD684602F0C1
:104BD000D1FE0EB010BD684600F03EFF0028EFD0B9
:104BE000E3E700BF70B5D0F884548EB016465DB1CF
:104BF00005F5896500230A4668462946009302F0B8
:104C000029FC90B90EB070BDD0F888040028F9D006
:104C100000F589640A462B46214668460C9500F04B
:104C2000F5FD48B900200EB070BD324629466846F1
:104C300002F0E4FD0EB070BD32462146684601F038
:104C40005DF80028EED0DDE710B5D0F884448EB0D2
:104C50000A464CB10020009001232146684602F02C
:104C600077FC80B90EB010BDD0F8881441B1012393
:104C700068460C9400F032FE50B900200EB010BD12
:104C800008460EB010BD684603F00AFD0EB010BD18
:104C9000684600F087FE0028EFD0E3E730B5D0F893
:104CA00084448FB00A464CB10025012304F5896184
:104CB0006846009502F05AFB0FB030BDD0F888046A
:104CC0000028F9D000F58961012368460C9401F0B1
:104CD00083F80FB030BD00BF10B5D0F884448EB05B
:104CE0000A463CB1002321466846009302F030FC9E
:104CF0000EB010BDD0F8881431B1234668460C942C
:104D000000F0ECFD0EB010BD08460EB010BD00BFA7
:104D100070B5054690F8C00408B9014670BDD5F8D5
:104D20008404002838D0C469D5F89034013C1BB302
:104D30001A7E0ABB0121184605F016FB88B1D5F88A
:104D4000840400283ED1D5F8880408B102F0D4F8D4
:104D50000646D5F8900420B1002105F005FB00B10E
:104D6000A41BD5F8843473B19B794FF4007199403A
:104D700089B2A1FB040170BD04F042FAD5F8843475
:104D8000241A002BF0D1D5F888040028C5D0D0F81B
:104D90003C14A4FB010170BDD5F88804D5F890340B
:104DA00050B1D0F8304423B11A7E002AC2D0002876
:104DB000B3D002F0A1F8E1E70BB10446F4E71846DE
:104DC0000146ABE704F01CFA0646C2E72DE9F043C2
:104DD000D0F890548DB04DB198462B680446DB69ED
:104DE00028469847B0F5405F064604D8002630466E
:104DF0000DB0BDE8F0834FF400700BF059F9074691
:104E00000028F3D00DF10409B6F1806F0246434645
:104E10002946484616D901F053FB064638460BF0A2
:104E20004FF9002EE2D02B6828461B6A984794F869
:104E3000B034FF2B0AD100233046C4F890340DB0B3
:104E4000BDE8F08303F040FF0646E7E7D4F8B4344A
:104E5000B4F8B0240293D4F8B834ADF80420039326
:104E600004F2944599E80E00284605F069FA94F892
:104E7000A134C4F89054002BB9D101231A46294615
:104E8000201D04F0E1FBB2E790F8C03463B1D0F824
:104E9000843463B19A79D9694FF40070904080B23C
:104EA0000139A0FB01017047184601467047D0F850
:104EB00088040028F9D0D0F83C14D0F83004A1FBC5
:104EC0000001704770B5D0F8903484B00446ABB19F
:104ED00090F8C05490F8C2045DB1212820D807F0A2
:104EE00075FB051E18BF0125284684F8C05404B080
:104EF00070BD212808D807F069FB28B9002528468D
:104F000084F8C05404B070BD94F8B034FF2B12D1B3
:104F100000232846C4F8903484F8C05404B070BD0F
:104F20006A460A21184604F0ADFE0546284684F874
:104F3000C05404B070BDD4F8B424D4F8B834B4F874
:104F4000B0140293ADF80010019204F294466B463F
:104F50000ECB304605F0F4F994F8A134C4F890640F
:104F6000002BCCD101231A463146201D04F06CFBE6
:104F70000546C4E7F0B50D46044685B0194805F06E
:104F800031FB212D84F8C15402D9002005B0F0BDB9
:104F90000026154B02938DF804508DF8056003969A
:104FA00004F29447C4F8B43404AB13E90E0084F857
:104FB000B05484F8B164C4F8B864384605F0C0F958
:104FC00094F8A134C4F8907423B1304684F8C00436
:104FD00005B0F0BD01231A463946201D04F034FB0C
:104FE000F4E700BF514A000040787D0110B5144835
:104FF000144C1549154A04604FF0290C002380F821
:10500000A1C44FF47F4E4FF0FF0C80F8A53480F818
:10501000BC34A0F8C0E480F8C2C4C0F89C14C0F846
:105020009424BDE810400A4A0A49C0F88434C0F804
:105030008834C0F8903480F8AC340AF019B800BF56
:10504000A092FF1F808001000110013874810100CF
:105050002087FF1F4D4A000070B500F124038C46E5
:105060000546164693E8070084B001AC84E80700C3
:10507000286A4FEA4C12214601F05EFE012806D153
:10508000286A3246214601F03BFE04B070BD002084
:1050900004B070BD10B5044600F0A8FD002384F8EC
:1050A000313084F8333010BD38B513460D46002238
:1050B00000F12401006A1C4601F022FE20B1438960
:1050C0002B8003892380012038BD00BF38B51346EB
:1050D0000D46002200F12401006A1C4601F010FE7A
:1050E00020B1C3892B8083892380012038BD00BF74
:1050F00038B590F831300BB1002038BD04460D466C
:10510000382219460CF036F80120402384F831305B
:1051100084F83300256238BD70B40C78202C0D461D
:10512000114603D115F8014F202CFBD00D608D6086
:105130002C783CB3214E0CE0A4F1220C5FFA8CFCDD
:1051400026FA0CFC1CF0010F10D12E2C16D12C7855
:10515000C4B12F2C24D03C2C05F1010509D8212CF9
:10516000EAD804F1FF3CBCF11E0F15D8002070BC3A
:1051700070475C2CFAD009D97C2CF7D08D602C7844
:10518000002CE6D11D6070BC01F0A4BC3E3C012C9B
:10519000F4D8002070BC7047202CD8D08D60EEE78A
:1051A0002C46254614F801CBBCF1200FF9D0BCF1F8
:1051B0002F0FF6D01D6070BC01F08CBC01210005E2
:1051C0002DE9F04790F83330DC0782B005466DD505
:1051D00058060F46904640F1B580D5E90023D5E941
:1051E000041018EB020443F10003A14270EB030327
:1051F000C0F0AE80B8F1000F54D0D5E90032464679
:10520000D5F82090D9F838441C40C4F3080A002C83
:1052100057D1134377D195F831305A064CBFD9F89E
:105220003414E969A96199F84534D9F82C24023974
:1052300099401144B6F5007F50D3D9F81C228A4218
:105240004CD0B6F5806F65D34FF0010A0AFA03FA25
:10525000AAEB040A730A9A4528BF9A468A424FEA83
:105260004A240AD30AEB01039A4206D209F50470D4
:10527000019105F05DF90199C0B1D9F81402D0F897
:1052800000C05346DCF814903A46C84770B1234634
:10529000D5E900125B1842F10002361BC5E9003265
:1052A0002744ADD1404602B0BDE8F08795F83230D2
:1052B0004FF0FF3043F0020385F8323002B0BDE812
:1052C000F087AA6999F84534D9F82C04911E9940C1
:1052D000640A01442144BAF1000FABD0CAF500744E
:1052E000B4424FF0000209F5047028BF344605F0BF
:1052F00047F90028DAD000EB0A012246384606F0CA
:105300009BFD2346C4E795F83330A9695B060DD5AC
:10531000013187E7D9F8140203683A461B699847B8
:105320000028C3D04FF400731C46B1E705F1180202
:10533000484601F043FD0028B8DB0CD0A969D5F838
:10534000209070E795F8313019077FF553AF44E7A7
:10535000A1EB02084EE795F8313013F0500FA5D0BD
:10536000A8EB060840469EE7F0B583B001220DF198
:1053700007010446D0E900678569FFF721FF01288E
:1053800008BF9DF80700A56118BF4FF0FF30C4E9C2
:10539000006703B0F0BD00BF2DE9F84F90F8311061
:1053A000D0F818800446002950D01646D0E9002CC9
:1053B0009C4508BFB2421F4658D056EA07034AD060
:1053C000080704D5D4E90403B042BB413ED3D4F866
:1053D000209099F845340933751EDBB247F1FF3A46
:1053E000C3F120000AFA00FBDD40A3F1200E2AFAE7
:1053F0000EFA45EA0B0545EA0A0594F833A01AF0BF
:10540000400F2FD112F1FF3A2AFA03F34CF1FF3A81
:105410000AFA00F003432AFA0EFA43EA0A039D420D
:1054200002D352EA0C0C24D14B064CBFD9F83434C9
:10543000E369A36104F118094A4675B1A169206ABC
:1054400001F0BCFC002805F1FF35F5DCC4F818803C
:105450000020BDE8F88F00238361C4E900670120C4
:10546000BDE8F88FE3692B44A361F6E70120BDE8AE
:10547000F88FED1ADEE700BF2DE9F04F064690F8F1
:1054800031008FB0002840F0D880174691F83120C5
:1054900012F0500F8B4600F0D08003F00302032A75
:1054A0009A4600F0CA80013203F0080142EA010383
:1054B0000293002F00F0CA803A6902F10E08A84A50
:1054C000A2FB0828DBE900214FEAD80808F102080E
:1054D0000A435FFA88F805D0CBF8180000210020B5
:1054E000CBE90001029B002443F0400325460393CF
:1054F000202206A95846FFF763FE00B3202840F09B
:105500009C809DF918209DF81830002AC0F2A180D7
:1055100034B9DBF80020A2F12009DBF81820019251
:1055200044453CBF0134E4B2002B00F0128120223C
:1055300006A958460025FFF743FE0028DED11AF4DD
:10554000007F7AD0029B9B0777D5002F75D044450A
:1055500017D2DDF804A0202206A95846FFF730FE36
:10556000631C002861D0202867D12CB9DBF800200B
:10557000DBF818A0A2F12009DCB2A045EBD8CDF8E9
:1055800004A03822002130469BF833400BF0F2FD96
:10559000DBF820303362019B7362082386F83130D8
:1055A0003B68C6F82890C4F38014002586F82C4088
:1055B0007B60BD81B8F1000F32D008F1FF39DFF810
:1055C000A4A15FFA89F9AB46012259463046FFF79C
:1055D00043FD044688B390F90020002A2DDB2022E9
:1055E00000210BF0C7FD002D00F0BE80BBF1010FC4
:1055F00000F0D480C1232370A3461E34BB893846F3
:105600001BB97A68BB689A4205D004F0F7FF2BF803
:10561000020FA345F2D101355FFA85FBD845D3D8F7
:10562000304600F0E3FA05460CE05846DBF8185027
:1056300000F00CFB002840F09080002586F83150E7
:1056400086F8335028460FB0BDE8F08F4FF00308BE
:1056500048E755BB444538BF0024852B7FF448AF4D
:105660002946382230460BF085FD9DF81C209DF818
:10567000193086F8303002F03703D20658BF43F0B5
:10568000080386F83130DBF80030DBF82020326286
:10569000203BDBF818207262B3629BF83330C3F30F
:1056A000801386F82C30012522E7C02B28D0C12B8F
:1056B0007FF43DAF3A4606A9304601F081F9E8B1E2
:1056C000BB89DBB9BA687B689A4217D11AF4006FBC
:1056D000B3D11AF4884F6FD196F833309C076BD44E
:1056E0001AF4806FA9D11AF4804FABD0D6E9042305
:1056F0003046FFF751FE0028A4D19EE70546F7E6A5
:10570000029B86F833309DF819309B0744BF039BFA
:1057100086F833300B9BF361DDE90823C6E90423E7
:10572000DDE90C23C6E90223002FCFD04FF00003A0
:105730003A69BB819DF81B30396879609A427FF4E1
:10574000F6AEBD8ABDF81C30ED1AB5FA85F56D09C7
:10575000CEE6002F7FF4F3AE6FE7CBF818500CE7DE
:10576000898888887097FF1F8523237086F830907A
:1057700084F80190DAF80030002B41D00DF11302CB
:105780000DF1160105A89847BDF814306381BDF8E6
:10579000163023819DF8133023753CE7C023237016
:1057A000029B84F801B063F07F0386F833303B69D5
:1057B000E370BB8AA3802EE796F83130D8063FF518
:1057C0003CAF13F001027FF438AF1AF4806F8AD037
:1057D00096F8331089077FF530AF002B3FF42DAFDB
:1057E000D6E900310B4304D000200021C6E90001B6
:1057F000B261304600F0F2FB00283FF41EAF21E713
:1058000045F621236381E381638204E72DE9F043B8
:10581000044697B0994694F83130019200201490D4
:10582000ADF814006BBB91F8313013F0500F0E46F9
:1058300027D013782F2B154627D04FF0000813E000
:10584000019D2F78A7B3FFF717FE064634222146A5
:1058500008A8B6B106F0F0FA204600F0C7F908AE85
:1058600084F8318084F83380294601AB02AA2046AF
:10587000FFF752FC0546002302AA31462046002DC0
:10588000DED1002017B0BDE8F08315F8011F2F29E5
:10589000FBD0019599B938222046356A0BF06AFC95
:1058A0000120402384F83130256284F83300E9E791
:1058B0004B4602AAFFF7E0FD17B0BDE8F08338229F
:1058C000002108A8366A0BF055FC01238DF85330EF
:1058D000402310968DF8513008AEAEE719B101F5AE
:1058E0008961FFF793BF0846704700BF90F83130D9
:1058F00063B991F8313013F0500F07D00B6813F0F3
:105900001F0C03D113466246FFF7B6BD0020704757
:105910008169F8B50446006A01B10131012201F044
:105920000FF90128054632D9012301461A46206A9B
:1059300001F066F9064650B3A3695BB394F83320CF
:10594000510612D5591CA94218D022F04002E16933
:1059500084F8332005E0206A01F050FAB8B1A36959
:1059600039464F1C99423A46F5D3206A4FF0FF3230
:10597000294601F043FA50B1A16911B9A561304639
:10598000F8BD206A2A4601F039FA0028F6D100262F
:105990003046F8BD94F8333043F0400384F8333098
:1059A000ECE700BF90F833309A0736D5C16970B57F
:1059B0000546A1B90024214607E0037803F07F03E0
:1059C000037095F830308B4229D301222846FFF727
:1059D00043FB0134E1B20028EFD1002070BD5B062B
:1059E000006A34D5D5E9022490F845340933013AE8
:1059F000DBB244F1FF34C3F1200CDA4004FA0CFCB2
:105A0000203B24FA03F342EA0C021A43013200233A
:105A100001F0F6F80028CDD1DFE7002070472C6AAE
:105A2000002385F8313085F83330204604F080FDBE
:105A30000028D2D004F5047004F07AFD0028CCD000
:105A4000D4F840040368BDE870401B6A184701F0B1
:105A5000F5F90028AED1C0E790F83130DB0601D46B
:105A60000020704710B5002288B000230446FFF7DD
:105A700093FC08E020281BD19DF900309DF8002000
:105A8000002B15DB32B1202269462046FFF798FB38
:105A90000028EFD194F83330082243F0020384F851
:105AA000312084F833302046FFF77CFF08B010BD6A
:105AB000002008B010BD00BF2DE9F0414FF00008F4
:105AC000494F82B006464446414600223046FFF721
:105AD000C3FA054630B10078C02867D0C1282BD062
